:020000040800F2
:10000000000002204D3F0008713A0008733A0008D2
:10001000753A0008773A0008793A000800000000B5
:100020000000000000000000000000007B3A000813
:100030007D3A0008000000007F3A0008813A00087D
:100040009D3F00089D3F00089D3F00089D3F000820
:100050009D3F00089D3F00089D3F00089D3F000810
:100060009D3F00089D3F00089D3F00089D3F000800
:100070009D3F00089D3F00089D3F00089D3F0008F0
:100080009D3F00089D3F00089D3F00089D3F0008E0
:100090009D3F00089D3F00089D3F00089D3F0008D0
:1000A0009D3F00089D3F00089D3F00089D3F0008C0
:1000B0009D3F00089D3F00089D3F00089D3F0008B0
:1000C0009D3F00089D3F00089D3F00089D3F0008A0
:1000D0009D3F00089D3F00089D3F00089D3F000890
:1000E0009D3F00089D3F00089D3F00089D3F000880
:1000F0009D3F00089D3F00089D3F00089D3F000870
:100100009D3F00089D3F00089D3F00089D3F00085F
:100110009D3F00089D3F00089D3F00089D3F00084F
:100120009D3F00089D3F00089D3F00089D3F00083F
:100130009D3F00089D3F00089D3F00089D3F00082F
:100140009D3F00089D3F00089D3F00088D3A000834
:100150009D3F00089D3F00089D3F00089D3F00080F
:100160009D3F00089D3F00089D3F00089D3F0008FF
:100170009D3F00089D3F00089D3F000800000000D3
:080180009D3F00089D3F0008AF
:1001880010B5054C237833B9044B13B10448AFF3C9
:1001980000800123237010BDC8010020000000006A
:1001A800D053000808B5034B1BB103490348AFF30C
:1001B800008008BD00000000CC010020D0530008DA
:1001C80081F0004102E000BF83F0004330B54FEA00
:1001D80041044FEA430594EA050F08BF90EA020F6D
:1001E8001FBF54EA000C55EA020C7FEA645C7FEA00
:1001F800655C00F0E2804FEA5454D4EB5555B8BF23
:100208006D420CDD2C4480EA020281EA030382EA93
:10021800000083EA010180EA020281EA0303362D25
:1002280088BF30BD11F0004F4FEA01314FF4801CF8
:100238004CEA113102D0404261EB410113F0004F0A
:100248004FEA03334CEA133302D0524263EB4303C1
:1002580094EA050F00F0A780A4F10104D5F1200E5F
:100268000DDB02FA0EFC22FA05F2801841F10001BA
:1002780003FA0EF2801843FA05F359410EE0A5F18E
:1002880020050EF1200E012A03FA0EFC28BF4CF0BF
:10029800020C43FA05F3C01851EBE37101F0004575
:1002A80007D54FF0000EDCF1000C7EEB00006EEB82
:1002B8000101B1F5801F1BD3B1F5001F0CD349080C
:1002C8005FEA30004FEA3C0C04F101044FEA445263
:1002D80012F5800F80F09A80BCF1004F08BF5FEAEA
:1002E800500C50F1000041EB045141EA050130BDCA
:1002F8005FEA4C0C404141EB010111F4801FA4F16D
:100308000104E9D191F0000F04BF01460020B1FAC1
:1003180081F308BF2033A3F10B03B3F120020CDAF9
:100328000C3208DD02F1140CC2F10C0201FA0CF0D7
:1003380021FA02F10CE002F11402D8BFC2F1200C3C
:1003480001FA02F120FA0CFCDCBF41EA0C019040F2
:10035800E41AA2BF01EB0451294330BD6FEA04043B
:100368001F3C1CDA0C340EDC04F11404C4F1200226
:1003780020FA04F001FA02F340EA030021FA04F338
:1003880045EA030130BDC4F10C04C4F1200220FA8F
:1003980002F001FA04F340EA0300294630BD21FACD
:1003A80004F0294630BD94F0000F83F4801306BF93
:1003B80081F480110134013D4EE77FEA645C18BF87
:1003C8007FEA655C29D094EA050F08BF90EA020F1E
:1003D80005D054EA000C04BF1946104630BD91EA16
:1003E800030F1EBF0021002030BD5FEA545C05D119
:1003F8004000494128BF41F0004130BD14F5800458
:100408003CBF01F5801130BD01F0004545F0FE41CB
:1004180041F470014FF0000030BD7FEA645C1ABF00
:10042800194610467FEA655C1CBF0B46024650EA37
:10043800013406BF52EA033591EA030F41F4002163
:1004480030BD00BF90F0000F04BF0021704730B5E9
:100458004FF4806404F132044FF000054FF00001BE
:1004680050E700BF90F0000F04BF0021704730B57F
:100478004FF4806404F1320410F0004548BF404254
:100488004FF000013EE700BF42004FEAE2014FEAA9
:1004980031014FEA02701FBF12F07F4393F07F4F84
:1004A80081F06051704732F07F4208BF704793F087
:1004B8007F4F04BF41F40021704730B54FF460749A
:1004C80001F0004521F000411CE700BF50EA01029D
:1004D80008BF704730B54FF000050AE050EA010246
:1004E80008BF704730B511F0004502D5404261EBB6
:1004F80041014FF4806404F132045FEA915C3FF4F7
:10050800D8AE4FF003025FEADC0C18BF03325FEA93
:10051800DC0C18BF033202EBDC02C2F1200300FA44
:1005280003FC20FA02F001FA03FE40EA0E0021FA69
:1005380002F11444BDE600BF70B54FF0FF0C4CF457
:10054800E06C1CEA11541DBF1CEA135594EA0C0F09
:1005580095EA0C0F00F0DEF82C4481EA030621EA44
:100568004C5123EA4C5350EA013518BF52EA03357F
:1005780041F4801143F4801338D0A0FB02CE4FF031
:100588000005E1FB02E506F00042E0FB03E54FF061
:100598000006E1FB03569CF0000F18BF4EF0010E59
:1005A800A4F1FF04B6F5007F64F5407404D25FEA55
:1005B8004E0E6D4146EB060642EAC62141EA555108
:1005C8004FEAC52040EA5E504FEACE2EB4F1FD0C4A
:1005D80088BFBCF5E06F1ED8BEF1004F08BF5FEAC8
:1005E800500E50F1000041EB045170BD06F000467A
:1005F80046EA010140EA020081EA0301B4EB5C0427
:10060800C2BFD4EB0C0541EA045170BD41F480111E
:100618004FF0000E013C00F3AB8014F1360FDEBF43
:10062800002001F0004170BDC4F10004203C35DA1F
:100638000C341BDC04F11404C4F1200500FA05F3A2
:1006480020FA04F001FA05F240EA020001F0004243
:1006580021F0004110EBD37021FA04F642EB0601B9
:100668005EEA430E08BF20EAD37070BDC4F10C04E3
:10067800C4F1200500FA04F320FA05F001FA04F2A7
:1006880040EA020001F0004110EBD37041F1000193
:100698005EEA430E08BF20EAD37070BDC4F120059E
:1006A80000FA05F24EEA020E20FA04F301FA05F206
:1006B80043EA020321FA04F001F0004121FA04F2AE
:1006C80020EA020000EBD3705EEA430E08BF20EA7E
:1006D800D37070BD94F0000F0FD101F000464000B8
:1006E80041EB010111F4801F08BF013CF7D041EA3A
:1006F800060195F0000F18BF704703F0004652003E
:1007080043EB030313F4801F08BF013DF7D043EA0E
:100718000603704794EA0C0F0CEA135518BF95EAC4
:100728000C0F0CD050EA410618BF52EA4306D1D14B
:1007380081EA030101F000414FF0000070BD50EA6A
:10074800410606BF1046194652EA430619D094EAF4
:100758000C0F02D150EA013613D195EA0C0F05D1DE
:1007680052EA03361CBF104619460AD181EA030132
:1007780001F0004141F0FE4141F470014FF00000EA
:1007880070BD41F0FE4141F4780170BD70B54FF085
:10079800FF0C4CF4E06C1CEA11541DBF1CEA135505
:1007A80094EA0C0F95EA0C0F00F0A7F8A4EB0504E7
:1007B80081EA030E52EA03354FEA013100F08880DE
:1007C8004FEA03334FF0805545EA131343EA1263A7
:1007D8004FEA022245EA111545EA10654FEA00265C
:1007E8000EF000419D4208BF964244F1FD0404F515
:1007F800407402D25B084FEA3202B61A65EB030571
:100808005B084FEA32024FF480104FF4002CB6EB2D
:10081800020E75EB030E22BFB61A754640EA0C00AD
:100828005B084FEA3202B6EB020E75EB030E22BFED
:10083800B61A754640EA5C005B084FEA3202B6EB2E
:10084800020E75EB030E22BFB61A754640EA9C00ED
:100858005B084FEA3202B6EB020E75EB030E22BFBD
:10086800B61A754640EADC0055EA060E18D04FEA7B
:10087800051545EA16754FEA06164FEAC30343EA1B
:1008880052734FEAC2025FEA1C1CC0D111F4801FE8
:100898000BD141EA00014FF000004FF0004CB6E7E1
:1008A80011F4801F04BF01430020B4F1FD0C88BF80
:1008B800BCF5E06F3FF6AFAEB5EB030C04BFB6EB8B
:1008C800020C5FEA500C50F1000041EB045170BD7E
:1008D8000EF0004E4EEA113114EB5C04C2BFD4EBAB
:1008E8000C0541EA045170BD41F480114FF0000E2F
:1008F800013C90E645EA060E8DE60CEA135594EAAB
:100908000C0F08BF95EA0C0F3FF43BAF94EA0C0FAD
:100918000AD150EA01347FF434AF95EA0C0F7FF422
:1009280025AF104619462CE795EA0C0F06D152EA76
:1009380003353FF4FDAE1046194622E750EA41065A
:1009480018BF52EA43067FF4C5AE50EA41047FF46B
:100958000DAF52EA43057FF4EBAE12E74FF0FF3CD0
:1009680006E000BF4FF0010C02E000BF4FF0010CA1
:100978004DF804CD4FEA410C7FEA6C5C4FEA430C1A
:1009880018BF7FEA6C5C1BD001B050EA410C0CBF69
:1009980052EA430C91EA030F02BF90EA020F0020CB
:1009A800704710F1000F91EA030F58BF994208BF32
:1009B80090422CBFD8176FEAE37040F001007047EF
:1009C8004FEA410C7FEA6C5C02D150EA013C07D146
:1009D8004FEA430C7FEA6C5CD6D152EA033CD3D091
:1009E8005DF8040B704700BF8446104662468C468B
:1009F8001946634600E000BF01B5FFF7B7FF0028BE
:100A080048BF10F1000F01BD4DF808EDFFF7F4FFE6
:100A18000CBF012000205DF808FB00BF4DF808ED71
:100A2800FFF7EAFF34BF012000205DF808FB00BF94
:100A38004DF808EDFFF7E0FF94BF012000205DF8B6
:100A480008FB00BF4DF808EDFFF7CEFF94BF01206B
:100A580000205DF808FB00BF4DF808EDFFF7C4FF64
:100A680034BF012000205DF808FB00BF4FEA410CAD
:100A78007FEA6C5C02D150EA013C0AD14FEA430C90
:100A88007FEA6C5C02D152EA033C02D14FF00000CD
:100A980070474FF0010070474FEA410212F500120B
:100AA80015D211D56FF47873B3EB625212D94FEAAD
:100AB800C12343F0004343EA505311F0004F23FA97
:100AC80002F018BF404270474FF00000704750EAEC
:100AD800013005D111F0004008BF6FF000407047A9
:100AE8004FF00000704700BF53B94AB9002908BF4A
:100AF80000281CBF4FF0FF314FF0FF3000F072B9F3
:100B0800ADF1080C6DE904CE00F006F8DDF804E05C
:100B1800DDE9022304B070472DE9F047089E04463A
:100B28008846002B4BD18A42154667D9B2FA82F221
:100B38004AB1C2F1200701FA02F320FA07F79540FB
:100B480047EA030894404FEA154E230CB8FBFEF71A
:100B58001FFA85FC0EFB178843EA084307FB0CF1D4
:100B6800994209D9EB1807F1FF3080F01B819942AF
:100B780040F21881023F2B445B1AA4B2B3FBFEF08B
:100B88000EFB103344EA034400FB0CFCA44509D9CE
:100B98002C1900F1FF3380F00781A44540F204814D
:100BA80002382C4440EA0740A4EB0C0400271EB18D
:100BB800D4400023C6E900433946BDE8F0878B429C
:100BC80009D9002E00F0EB800027C6E9000138465D
:100BD8003946BDE8F087B3FA83F7002F47D18B4237
:100BE80002D3824200F2FA80841A61EB03030120E7
:100BF8009846002EE0D0C6E90048DDE702B9FFDEDE
:100C0800B2FA82F2002A40F08F80491B4FEA154E53
:100C18001FFA85F80127B1FBFEFC230C0EFB1C1103
:100C280043EA014308FB0CF1994207D9EB180CF190
:100C3800FF3002D2994200F2CD808446591AA3B2FD
:100C4800B1FBFEF00EFB101443EA044408FB00F865
:100C5800A04507D92C1900F1FF3302D2A04500F2B4
:100C6800B6801846A4EB080440EA0C409FE7C7F199
:100C7800200CBB4022FA0CFE4EEA030E01FA07F4E0
:100C880020FA0CF521FA0CF34FEA1E482543B3FB72
:100C9800F8F92C0C08FB19331FFA8EFA44EA0343BF
:100CA80009FB0AF49C4202FA07F200FA07F10BD991
:100CB8001EEB030309F1FF3080F087809C4240F26D
:100CC8008480A9F1020973441B1BADB2B3FBF8F091
:100CD80008FB103345EA034400FB0AFAA24508D989
:100CE8001EEB040400F1FF336BD2A24569D9023828
:100CF800744440EA0940A0FB0289A4EB0A044C456D
:100D0800C2464B4654D351D0002E69D0B1EB0A05E8
:100D180064EB030404FA0CFCFD40FC404CEA0505B6
:100D2800C6E90054002747E7C2F1200320FA03F779
:100D3800954001FA02F021FA03F34FEA154E3843C1
:100D4800010CB3FBFEF71FFA85F80EFB173341EAD7
:100D5800034107FB08F38B4204FA02F407D9691828
:100D680007F1FF3C2FD28B422DD9023F2944CB1AE1
:100D780081B2B3FBFEF00EFB103341EA034100FBE6
:100D880008F38B4207D9691800F1FF3C17D28B4250
:100D980015D902382944C91A40EA07473BE73746BC
:100DA800304609E70746E7E61846FBE64145ABD279
:100DB800B8EB020A69EB0E0201381346A4E7604655
:100DC800E9E7184695E76746D1E781467CE70238A8
:100DD8002C4447E7ACF1020C2B442FE7384608E7D0
:100DE8003746E9E6704700BF10B504460E4B187841
:100DF8004FF47A73B3FBF0F30C4A1068B0FBF3F0CE
:100E080000F0A8F868B90F2C01D901200AE00022E7
:100E180021464FF0FF3000F05DF8034B5C60002086
:100E280000E0012010BD00BF0000002018010020D4
:100E380008B50B4B1A6842F400721A601A6842F43B
:100E480080621A601A6842F480721A60032000F007
:100E58002FF80020FFF7C8FF02F0BCFD002008BDF6
:100E6800003C0240034A1168034B1B780B44136093
:100E7800704700BF1802002000000020014B1868CE
:100E8800704700BF1802002038B50446FFF7F6FF88
:100E98000546B4F1FF3F02D0044B1B781C44FFF712
:100EA800EDFF401BA042FAD338BD00BF0000002070
:100EB800074AD36823F4E0631B041B0C000200F408
:100EC800E060184340F0BF6040F40030D0607047E5
:100ED80000ED00E030B4174BDB68C3F30223C3F125
:100EE8000704042C28BF04241D1D062D18D9033B14
:100EF8004FF0FF3505FA04F421EA0401994005FA98
:100F080003F322EA0303194300280BDB0901C9B2E2
:100F180000F1604000F5614080F8001330BC704774
:100F28000023E5E700F00F000901C9B2024B19548C
:100F3800F4E700BF00ED00E014ED00E000F01F0250
:100F4800400901239340024A42F82030704700BF0D
:100F580000E100E00138B0F1807F0AD2064B58600A
:100F6800064AF02182F823100020986007221A60B0
:100F780070470120704700BF10E000E000ED00E07E
:100F8800042805D0054A136823F00403136070474A
:100F9800024A136843F004031360704710E000E04E
:100FA800704708B5FFF7FCFF08BD000000230F2BB2
:100FB80000F2D780F0B482B039E0072200E00022C6
:100FC800B2403A430234674E46F82420664A146811
:100FD800EA4302EA04064F6817F4803F01D045EA65
:100FE8000406614C2660646802EA04064F6817F438
:100FF800003F01D045EA04065B4C6660A46802EA3B
:1010080004064F6817F4801F01D045EA0406564CC1
:10101800A660E46822404E6816F4001F01D045EA35
:101028000402514CE26001330F2B00F29780012239
:101038009A400C6804EA0205AA42F4D14C68022CD2
:1010480001D0122C10D1DE08083650F826C003F063
:101058000704A7000F24BC402CEA040C0C69BC4010
:1010680044EA0C0440F8264004685F000326BE40AA
:10107800F64306EA040C4C6804F00304BC4044EA56
:101088000C0404604C6804F1FF3CBCF1010F03D967
:10109800112C01D0122C10D1846806EA040CCC68FB
:1010A800BC4044EA0C048460446824EA02024C68A8
:1010B800C4F300149C4014434460C26816408A6814
:1010C800BA403243C2604A6812F0805FABD0002257
:1010D8000192264A546C44F480445464526C02F4DD
:1010E80080420192019A9C08A61C1E4A52F826705A
:1010F80003F0030296000F22B24027EA02071C4AB7
:1011080090423FF45CAF02F5806290421AD002F53B
:101118008062904218D002F58062904216D002F5A3
:101128008062904214D002F58062904212D002F59B
:101138008062904210D002F5806290423FF43DAF49
:1011480008223DE701223BE7022239E7032237E77D
:10115800042235E7052233E7062231E702B0F0BC66
:101168007047704700380140003C01400038024099
:101178000000024012B9090481617047816170471B
:101188002DE9F04383B007460D46D0F80080CA0029
:10119800521A93000344DE6C1A6DB61A1B6C9E42F9
:1011A80000D91E4606F103094FEA990915E006F130
:1011B80003094FEA9909EB005B1B9C003C44616CF6
:1011C8003B7C0093B3B2EAB2404601F0CFFB636CBC
:1011D80033446364236D33442365414608EB451368
:1011E80003F510639B699BB24B4512D9EA00521B69
:1011F80093003B441A6DDB6C9A420AD24BB19E1A9B
:10120800C5EBC50293003B441B6C9E42CFD91E46DA
:10121800CDE73EB90123AB40D1F8345825EA0305A0
:10122800C1F83458002003B0BDE8F08300286BD023
:10123800F0B58BB00446032380F8B93302F0B6FC4E
:10124800206800F0DFFF254655F8107B6E460FCD6D
:101258000FC60FCD0FC695E8030086E80300231DCF
:101268000ECB384600F08AFF0021206800F0D0FF3E
:10127800002210E0D100891A8B002344012183F851
:10128800391083F83820DA87002183F83B10196475
:101298005964D96401320E2AECD9002218E0D10031
:1012A800891A8B002344002183F8F91183F8F82167
:1012B800DA8783F8FB11C3F80012C3F80412C3F8E5
:1012C8000C12236802F1400003EB800359600132DD
:1012D8000E2AE4D9254655F8107B6E460FCD0FC669
:1012E8000FCD0FC695E8030086E80300231D0ECB3B
:1012F800384600F0A3FF012384F8B933206801F0D1
:10130800E0FB00200BB0F0BD0120704790F8B83327
:10131800012B0ED010B50446012380F8B8330068BD
:1013280001F0C3FB206800F067FF002084F8B803D1
:1013380010BD0220704700002DE9F04704460568FB
:10134800284601F0F9FB08B1BDE8F0870646206899
:1013580001F0C3FB0028F7D0206801F0BEFB10F0B5
:10136800020F04D02268536903F002035361206816
:1013780001F0B3FB10F4002F75D13746206801F057
:10138800ACFB10F4802F40F0D280206801F0A5FB60
:101398000028C0F23E81206801F09FFB10F4006F26
:1013A8000AD0D5F8083813F0010F40F041812268BF
:1013B800536903F400635361206801F08EFB10F455
:1013C800805F40F03981206801F087FB10F4005FEE
:1013D80040F08281206801F080FB10F0100F14D0DB
:1013E8002268936923F0100393612E6A06F00F08B0
:1013F800C6F34343022B00F00382062B00F0218240
:101408002268936943F010039361206801F065FB3B
:1014180010F0080F40F02982206801F05EFB10F4FC
:10142800801F40F02B82206801F057FB10F4001F4A
:1014380040F02E82206801F050FB10F0804F40F001
:101448003182206801F049FB10F0040F3FF47CAFB3
:1014580023685D6815F0040F40F02D8222685368F8
:101468002B43536070E7206801F03BFB804637460A
:1014780021E0F900C91B8A002244D2F800121B6936
:10148800C3F31203C91AC2F81012D2F80012D2F824
:1014980004320B44C2F8043228E019F0080F3DD199
:1014A80019F0100F04D005EB47131022C3F8082BCE
:1014B80001374FEA5808B8F1000F3FF45FAF18F052
:1014C800010FF5D05FFA87FA5146206801F019FB41
:1014D800814610F0010FE0D005EB47130122C3F855
:1014E800082B03F530632269012AC2D051462046F1
:1014F80002F098FB2369012BCFD1002FCDD1C7EB88
:10150800C70293002344D3F80C32002BC5D104F54D
:101518006F720121206801F02FFBBEE7204602F020
:1015280079FB05EB47130822C3F8082BB8E72068B6
:1015380001F0DFFA804637462EE0FA00D21B93000E
:101548002344196C5A6C0A445A6446E019F0080F8F
:1015580004D005EB47130822C3F8082919F0100F27
:1015680004D005EB47131022C3F8082919F0400FDF
:1015780004D005EB47134022C3F8082919F0020FDD
:1015880004D005EB47130222C3F8082919F0800F8D
:101598003AD101374FEA5808B8F1000F3FF4F5AED9
:1015A80018F0010FF5D05FFA87FA5146206801F06C
:1015B800B1FA814610F0010FC8D0012202FA07F0F3
:1015C800D5F8343823EA0003C5F8343805EB471357
:1015D800C3F8082923699342AFD05146204602F048
:1015E8002DFB2369012BB1D1002FAFD1C7EBC70267
:1015F80093002344DB6C002BA8D104F56F72012102
:10160800206801F0B9FAA1E739462046FFF7B8FD8E
:10161800BFE7D5F8043823F00103C5F8043820469D
:1016280002F046FB2268536903F000435361B2E6B7
:10163800204602F025FBBAE6A94605F50068D8F869
:10164800043023F00103C8F804301021206800F0AA
:101658009DFE07E009EB4613FF22C3F80829C3F8EB
:10166800082B01366368B342F4D84FF0FF33C8F84B
:101678001830D8F81C3043F00113C8F81C30236B1D
:10168800EBB1D8F8843043F00B03C8F88430D8F8AD
:10169800443043F00B03C8F84430D5F8003823F43D
:1016A800FE63C5F8003804F56F72217C206801F0EC
:1016B80063FA2268536903F48053536183E6D8F8C8
:1016C800143043F00B03C8F81430D8F8103043F046
:1016D8000B03C8F81030E0E7206801F031FA2268FF
:1016E800D36823F47053D360206800F07CFE90B96F
:1016F8000023E3604FF4007363612268D36843F406
:101708001053D360204602F0AAFA2268536903F402
:10171800005353615EE60323E3604023636100F0F6
:1017280027FD674B0344674A934205D82268D3686C
:1017380043F47053D360E5E7634B0344634A934231
:1017480005D82268D36843F46053D360DAE7A0F57C
:101758007403A3F510535E4A934205D82268D368F0
:1017680043F45053D360CDE7A0F18373A3F5E74367
:10177800584A934205D82268D36843F44053D3604B
:10178800C0E7554B0344554A934205D82268D368AD
:1017980043F43053D360B5E7514B0344514A934265
:1017A80005D82268D36843F42053D360AAE74E4B88
:1017B80003444E4A934205D82268D36843F4105331
:1017C800D3609FE7A0F1B773A3F55853484A9342F3
:1017D80005D82268D36843F40053D36092E7454B99
:1017E8000344454A934205D82268D36843F4E0533A
:1017F800D36087E72268D36843F4C053D36081E796
:1018080047F6F0731E423FF4FBAD36094FEAC80AAB
:10181800AAEB08034FEA8309A144C6F30A02D9F8E0
:101828000412284601F0B6F8C6F30A06D9F80432BD
:101838003344C9F80432D9F810321E44C9F810628A
:10184800DEE5082204F56F71284601F0A3F8C6F317
:101858000A164FEAC803A3EB08018A002244D2F80B
:1018680010321E44C2F81062CAE5204602F0F1F9AF
:101878002268536903F008035361CDE5F9B22046A5
:1018880002F022FA2268536903F480135361CAE50F
:10189800F9B2204602F012FA2268536903F40013E1
:1018A8005361C7E5204602F015FA2268536903F030
:1018B80080435361C5E5204602F012FACEE500BF29
:1018C800405327FFFF340C00401E1BFF3F420F0010
:1018D8007F4F12001FD6130060B6E5FE5FE31600C7
:1018E80000D3CEFE3F771B00C05BB3FEBF91210043
:1018F8001F753800E05459FEDF9C410090F8B8335A
:10190800012B0BD010B50446012380F8B8330068CA
:1019180001F0BBF8002084F8B80310BD022070471E
:1019280070B54DB2002D22DB01F07F06C6EBC6066E
:10193800B40004F5FC74044401F07F012170ED0F3C
:101948006570A260E37005B1E180022B17D090F8B2
:10195800B833012B16D00546012380F8B833214649
:10196800006800F060FD002085F8B80370BD01F044
:101978007F06C6EBC606B40038340444DCE700230F
:101988002371E4E70220F1E710B54AB2002A1CDB14
:1019980001F07F04C4EBC404A30003F5FC73034403
:1019A80001F07F011970D20F5A7090F8B823012AFC
:1019B80013D00446012280F8B8231946006800F0C5
:1019C8007BFD002084F8B80310BD01F07F04C4EB50
:1019D800C404A30038330344E2E70220F4E770B5F7
:1019E80001F07F06F500A91B8C0004F5FC740119B1
:1019F800AD1BAC000444C4F80422C4F80C32002324
:101A0800C4F8103284F8F93184F8F8610369012BBD
:101A180006D066B1DAB2006800F0C6FD002070BDDD
:101A2800C6EBC605AC000444C4F80822F1E7DAB2F4
:101A3800006800F0EBFEF1E701F00F01C1EBC10116
:101A48008B001844B0F81002704770B501F07F069B
:101A5800F500A91B8C0038340119AD1BAC000444F7
:101A68006264E36400232365012384F8393084F831
:101A780038600369012B06D05EB1DAB2006800F065
:101A880093FD002070BDC6EBC605AC000444A264FB
:101A9800F2E7DAB2006800F0B9FEF2E738B54AB208
:101AA800002A1DDBC1EBC104A30003F5FC7303444A
:101AB80001249C7001F07F041C70D20F5A7090F8BA
:101AC800B823012A1BD00546012280F8B8231946FD
:101AD800006800F073FF5CB1002085F8B80338BDDA
:101AE80001F07F04C4EBC404A30038330344DFE7E8
:101AF80005F56F72297C286801F03EF8ECE70220B2
:101B0800EDE710B54AB2002A1CDBC1EBC104A30003
:101B180003F5FC73034400249C7001F07F011970E5
:101B2800D20F5A7090F8B823012A13D00446012224
:101B380080F8B8231946006800F072FF002084F886
:101B4800B80310BD01F07F04C4EBC404A30038330C
:101B58000344E0E70220F4E730B40468606A29B17E
:101B68000D46A36A00EB134000230CE040EA024054
:101B7800A06212E003F1400104EB8101496800EB27
:101B880011400133DBB2691E8B42F3DB40EA0240AD
:101B980005F13F0104EB81014860002030BC70472B
:101BA8000368596200207047002800F0BB8170B5B7
:101BB80082B00446036813F0010F3BD0A74B9B6823
:101BC80003F00C03042B2CD0A44B9B6803F00C03EC
:101BD800082B21D06368B3F5803F4FD0B3F5A02F11
:101BE80052D09E4B1A6822F480321A601A6822F486
:101BF80080221A606368002B50D0FFF73FF9054632
:101C0800964B1B6813F4003F14D1FFF737F9401BBC
:101C18006428F5D903208AE1904B5B6813F4800FA0
:101C2800D8D08E4B1B6813F4003F03D06368002B99
:101C380000F07A81236813F0020F55D0874B9B6818
:101C480013F00C0F3ED0854B9B6803F00C03082B58
:101C580033D0E368002B68D0814B01221A60FFF76C
:101C68000DF905467D4B1B6813F0020F54D1FFF7A1
:101C780005F9401B0228F5D9032058E1774A136873
:101C880043F480331360B5E7744B1A6842F480223A
:101C98001A601A6842F480321A60ABE7FFF7EEF870
:101CA80005466E4B1B6813F4003FC3D0FFF7E6F8F8
:101CB800401B6428F5D9032039E1684B5B6813F4AD
:101CC800800FC6D1654B1B6813F0020F04D0E36880
:101CD800012B01D001202AE1604A136823F0F803A0
:101CE800216943EAC1031360236813F0080F40D049
:101CF800636963B35B4B01221A60FFF7BFF80546BF
:101D0800564B5B6F13F0020F33D1FFF7B7F8401B48
:101D18000228F5D903200AE1504A136823F0F80392
:101D2800216943EAC1031360DEE74D4B00221A60C4
:101D3800FFF7A4F80546494B1B6813F0020FD3D0F0
:101D4800FFF79CF8401B0228F5D90320EFE0454B2C
:101D580000221A60FFF792F80546404B5B6F13F0BC
:101D6800020F06D0FFF78AF8401B0228F5D9032096
:101D7800DDE0236813F0040F79D0384B1B6C13F0A7
:101D8800805F33D100230193344B1A6C42F08052A8
:101D98001A641B6C03F080530193019B0125324B9D
:101DA8001B6813F4807F23D0A368012B34D0052B44
:101DB80038D02A4B1A6F22F001021A671A6F22F0E4
:101DC80004021A67A368002B36D0FFF757F80646B7
:101DD800224B1B6F13F0020F48D1FFF74FF8801BFF
:101DE80041F288339842F3D90320A0E00025D6E7D2
:101DF8001D4A136843F480731360FFF73FF80646E3
:101E0800194B1B6813F4807FCED1FFF737F8801B7E
:101E18000228F5D903208AE0104A136F43F0010322
:101E28001367CFE70D4B1A6F42F004021A671A6F57
:101E380042F001021A67C5E7FFF720F80646074B8C
:101E48001B6F13F0020F11D0FFF718F8801B41F237
:101E580088339842F3D9032069E000BF0038024074
:101E680000004742800E474200700040E5B9A36970
:101E7800002B5BD0304A926802F00C02082A58D036
:101E8800022B17D02D4B00221A60FEF7F7FF0446ED
:101E9800294B1B6813F0007F42D0FEF7EFFF001BB1
:101EA8000228F5D9032042E0234A136C23F080531B
:101EB8001364DCE7214B00221A60FEF7DFFF0546BA
:101EC8001D4B1B6813F0007F06D0FEF7D7FF401BA1
:101ED8000228F5D903202AE0E369226A1343626ADB
:101EE80043EA8213A26A5208013A43EA0243E26AC9
:101EF80043EA0263104A5360104B01221A60FEF74E
:101F0800BDFF04460C4B1B6813F0007F06D1FEF79B
:101F1800B5FF001B0228F5D9032008E0002006E0E1
:101F2800002004E001207047012000E0002002B0FA
:101F380070BD0120FBE700BF003802406000474247
:101F4800324B9B6803F00C03042B5CD0082B01D0A8
:101F58002F4870472DE9F04B2C4B5A6802F03F028E
:101F68005B6813F4800F2BD0284B5B68C3F388138E
:101F78001E4600275C010025E41A65EB0705A90148
:101F880041EA9461A001001B61EB0501CB0043EA23
:101F98005073C400A01943EB07014B0243EAD05326
:101FA8004402204619460023FEF79EFD174B5B6846
:101FB800C3F3014301335B00B0FBF3F0BDE8F08BE2
:101FC800124B5B68C3F388131E4600275C0100258B
:101FD800E41A65EB0705A90141EA9461A001001B19
:101FE80061EB0501CB0043EA5073C400A01943EB31
:101FF80007018B0243EA90538402204619460023C6
:10200800FEF772FDD2E70348704700BF0038024070
:102018000024F40000127A00002800F09D8070B5BA
:1020280004464F4B1B6803F00F038B4209D2CBB217
:102038004B4A1370136803F00F038B4201D0012041
:1020480070BD236813F0020F17D013F0040F04D0EB
:10205800444A936843F4E0539360236813F0080FED
:1020680004D0404A936843F4604393603D4A9368C0
:1020780023F0F003A068034393600D46236813F030
:10208800010F32D06368012B21D09A1E012A25D96D
:10209800344A126812F0020F60D032498A6822F07E
:1020A800030213438B60FEF7E9FE06462D4B9B683F
:1020B80003F00C036268B3EB820F16D0FEF7DEFE66
:1020C800801B41F288339842F0D90320B8E7254AAB
:1020D800126812F4003FE0D10120B1E7214A1268EA
:1020E80012F0007FD9D10120AAE71D4B1B6803F02D
:1020F8000F03AB4209D9EAB2194B1A701B6803F0F7
:102108000F03AB4201D001209AE7236813F0040FB4
:1021180006D0144A936823F4E053E1680B439360B4
:10212800236813F0080F07D00E4A936823F460431E
:10213800216943EAC1039360FFF702FF094B9B68DB
:10214800C3F30313084AD35CD840084B1860002037
:10215800FEF74AFE002073E70120704701206FE771
:10216800003C024000380240E853000818010020F3
:10217800014B1868704700BF1801002084B010B5E3
:10218800044603A880E80E00089B012B20D1A36B0E
:1021980023F48033A363E36823F4840323F0400328
:1021A800E360E36823F44013E3600F9B012B0AD03C
:1021B800204600F005FD069B012B14D00020BDE849
:1021C800104004B07047E36843F48013E360EFE71E
:1021D800E36843F04003E360204600F0F1FC4FF46D
:1021E8008033A363E7E7A36843F00603A360A3680B
:1021F80043F02003A360E1E7836843F001038360B1
:1022080000207047836823F0010383600020704733
:1022180008B5C36823F0C043C360012909D019B9C0
:10222800C36843F08043C3603220FEF72DFE0020D0
:1022380008BDC36843F00053C360F5E784B0F8B540
:10224800044607A880E80E00119FBFB9A36B43F4AA
:102258000013A36325460023C4F8003E04F5006676
:10226800D4F80038C4F800380C9B012B10D1099B16
:102278004BB90021204600F0AFF80DE0A36B43F402
:102288000023A363E6E70121204600F0A5F803E058
:102298000321204600F0A0F81021204600F076F82F
:1022A800204600F087F80023336173614FF0FF3256
:1022B800B261F36108E04FF09040C2F800090022D3
:1022C8000A61FF228A600133079999420BD905EB0D
:1022D800431202F51061D2F800090028EBDB002058
:1022E800C2F80009EBE7002308E04FF0904CC2F871
:1022F80000CB00220261FF228260013399420DD98E
:1023080005EB431202F53060D2F800CBBCF1000FA8
:10231800EBDB4FF0000CC2F800CBEAE7336923F49B
:10232800807333610A9B012B1AD00022A2616FF0DF
:10233800804262611BB9A36943F01003A361A269DB
:10234800104B1343A3610D9B1BB1A36943F0080312
:10235800A361012F0ED00020BDE8F84004B07047FB
:10236800094A3263326B42F4803242F0030232632C
:10237800326BDAE7A36943F0804343F00403A361B7
:10238800E9E700BF00383C8000018000890141F086
:102398002001016100230133054A934205D80269EF
:1023A80012F0200FF7D1002070470320704700BFBC
:1023B800400D03001023036100230133054A9342B3
:1023C80005D8026912F0100FF7D1002070470320DA
:1023D800704700BF400D0300D0F800381943C0F81B
:1023E800001800207047D0F8083800F5006013F096
:1023F800060F10D0836803F00603022B0DD0836804
:1024080003F00603062B0AD0836803F00603042BA7
:1024180007D0002070470020704703207047032032
:1024280070470220704730B44B78012B22D0D0F887
:102438001C380D780122AA4043EA0243C0F81C3830
:102448000B7800EB4310D0F8003B13F4004F0ED18B
:10245800D0F8003B8A68C2F30A02C97842EA81428E
:10246800134343F0805343F40043C0F8003B00207B
:1024780030BC7047D0F81C280D78AB409BB2134392
:10248800C0F81C380C7800EB4410D0F8003913F46D
:10249800004FECD1D0F800398A68C2F30A02C97833
:1024A80042EA814242EA8452134343F0805343F4A0
:1024B8000043C0F80039DAE738B54B78012B36D03D
:1024C8000B78044600EB4313D3F8002B22F40042A8
:1024D800C3F8002B0B7800EB43134FF00062C3F8EE
:1024E800002B0B7800EB43134FF08042C3F8002B0E
:1024F800002201322B4B9A4252D80B7804EB43133B
:1025080003F530639B6813F0100FF2D1D0F804384C
:1025180043F48063C0F80438D0F81C3809780122E5
:102528008A4023EA0243C0F81C38002038BD0B78E3
:10253800044600EB4313D3F8002922F40042C3F801
:1025480000290B7800EB43134FF00062C3F8002911
:102558000B7800EB43134FF08042C3F800290022A8
:102568000132104B9A4219D80B7804EB431303F548
:1025780010639B6813F0804FF2D10D46044610217A
:10258800FFF704FFD4F81C28297801238B409BB25D
:1025980022EA0303C4F81C380020C7E70320C5E774
:1025A8000320C3E7400D030070B582B04B78012BC0
:1025B8003ED00B7800EB4313D3F8104BE40CE40443
:1025C800C3F8104B0B7800EB4313D3F8104B24F0EF
:1025D800FF5424F4C014C3F8104B4B69002B40F08F
:1025E800D4800B7800EB4313D3F8104B8D68C5F3F8
:1025F80012052C43C3F8104B0B7800EB4313D3F8A8
:10260800104B44F40024C3F8104B012A00F0DC807E
:10261800CB78012B00F0DF800B7800EB4310D0F86B
:10262800003B43F00443C0F8003B002002B070BDFB
:102638004B696BBB0B7800EB4313D3F8104924F0BC
:10264800FF5424F4C014C3F810490B7800EB43136B
:10265800D3F8104944F40024C3F810490B7800EB70
:102668004313D3F81049E40CE404C3F81049012AD1
:1026780054D0CB78012B57D04B69002B54D0D0F8CD
:1026880034380E780124B4402343C0F834384BE082
:102698000B7800EB4313D3F81049E40CE404C3F8B7
:1026A80010490B7800EB4313D3F8104924F0FF547A
:1026B80024F4C014C3F810490C7800EB4414D4F87F
:1026C80010594B698E683344013BB3FBF6F34E4E09
:1026D80006EAC3432B43C4F810390B7800EB4313C5
:1026E800D3F810494D69C5F312052C43C3F81049B6
:1026F800CB78012BBBD10B7800EB4313D3F81049EF
:1027080024F0C044C3F810490B7800EB4313D3F806
:10271800104944F00054C3F81049A8E70B7800EBBF
:1027280043130C69C3F81449CB78012B14D00B78E8
:1027380000EB4313D3F8004944F00444C3F80049BC
:10274800CB78012B7FF471AF14468B8A0A78C9685D
:10275800009400F00BF968E7D0F8083813F4807F8C
:1027680009D10B7800EB4313D3F8004944F0005427
:10277800C3F80049DBE70B7800EB4313D3F80049B3
:1027880044F08054C3F80049D1E78C682344013BE6
:10279800B3FBF4F30C7800EB4414D4F8105B1A4E36
:1027A80006EAC3463543C4F8105B0C7800EB4414C2
:1027B800D4F8106B8D689BB205FB03F5C5F31205C1
:1027C8003543C4F8105B20E7CA680B7800EB431365
:1027D800C3F8142B1CE7D0F8083813F4807F09D10C
:1027E8000B7800EB4313D3F8002B42F00052C3F8E8
:1027F800002B11E70B7800EB4313D3F8002B42F0C2
:102808008052C3F8002B07E70000F81F30B44B785C
:10281800012B39D00B7800EB4313D3F8104BE40CA1
:10282800E404C3F8104B0B7800EB4313D3F8104BB8
:1028380024F0FF5424F4C014C3F8104B4B690BB1B7
:102848008B684B610B7800EB4313D3F8104B44F4BF
:102858000024C3F8104B0B7800EB4313D3F8104B4C
:102868008D68C5F312052C43C3F8104B012A76D0A6
:102878000B7800EB4310D0F8003B43F00443C0F85A
:10288800003B002030BC70474B699BBB0B7800EBCA
:102898004313D3F8104924F0FF5424F4C014C3F8A8
:1028A80010490B7800EB4313D3F8104944F4002483
:1028B800C3F810490B7800EB4313D3F81049E40C24
:1028C800E404C3F810490B7800EB4313D3F800492C
:1028D80044F00444C3F80049012A39D04B69002B5D
:1028E800CFD0D0F83438097801228A401343C0F891
:1028F8003438C6E70B7800EB4313D3F81049E40CDF
:10290800E404C3F810490B7800EB4313D3F81049DB
:1029180024F0FF5424F4C014C3F810494C698B68A0
:102928009C4200D94B610B7800EB4313D3F8104954
:1029380044F40024C3F810490B7800EB4313D3F890
:1029480010494D69C5F312052C43C3F81049BAE77D
:102958000B7800EB43100B69C0F8143991E7CA688B
:102968000B7800EB4313C3F8142B81E770B49DF880
:102978000C4064B903339D0807E000EB023303F50C
:10298800805351F8046B1E600134AC42F5D300202B
:1029980070BC704703329208002393420CD210B4E3
:1029A80000F58054246841F8044B01339342F7D36F
:1029B80008465DF8044B7047084670474B78012B72
:1029C80017D00B7800EB4313D3F8002B002A05DB54
:1029D800D3F8002B22F08042C3F8002B0B7800EBD1
:1029E8004310D0F8003B43F40013C0F8003B00202C
:1029F80070470B7800EB4313D3F80029002A05DB56
:102A0800D3F8002922F08042C3F800290B7800EBA4
:102A18004310D0F8003943F40013C0F80039E6E752
:102A28004B78012B0FD00B7800EB4313D3F8002B16
:102A380022F40012C3F8002BCB78023BDBB2012B47
:102A480019D9002070470B7800EB4313D3F80029FD
:102A580022F40012C3F80029CB78023BDBB2012B29
:102A6800EFD80B7800EB4310D0F8003943F08053CF
:102A7800C0F80039E5E70B7800EB4310D0F8003BCD
:102A880043F08053C0F8003BDBE7D0F8003823F46C
:102A9800FE63C0F80038D0F80038090101F4FE617F
:102AA8000B43C0F800380020704708B5D0F8043848
:102AB80023F00203C0F804380320FEF7E5F90020EC
:102AC80008BD08B5D0F8043843F00203C0F804384C
:102AD8000320FEF7D9F9002008BD4269806910403B
:102AE8007047D0F8183800F50060C0691840000C2D
:102AF8007047D0F8183800F50060C069184080B2F7
:102B0800704700EB4111D1F8082B00F500604069CF
:102B18001040704710B4D0F81048D0F83438CB4083
:102B2800DB01DBB2234300EB411000F51060806845
:102B380018405DF8044B7047406900F00100704789
:102B4800D0F8003923F4FF6323F00703C0F80039F5
:102B580000F500639A6802F00602042A05D05A6854
:102B680042F480725A6000207047D0F8002942F081
:102B78000302C0F80029F2E710B40024C0F8104B93
:102B8800D0F8104B44F40024C0F8104BD0F8104B88
:102B980044F01804C0F8104BD0F8104B44F0C0446F
:102BA800C0F8104B012903D000205DF8044B704792
:102BB800C0F8142B4FF08023C0F8003BF4E7000066
:102BC800002301330C4A934211D80269002AF8DA2B
:102BD800036943F00103036100230133064A93426A
:102BE80007D8026912F0010FF7D1002070470320BF
:102BF80070470320704700BF400D0300D0F818321B
:102C08001BB10020C3F8140270470220704710B5AA
:102C1800D0F81842D0F81C325BB194F80002FF28B3
:102C280007D09B6894F8012221469847FF2384F82F
:102C38000032002010BD0000432303800048704785
:102C48000800002043230380004870474C00002000
:102C58004323038000487047900000200A23038024
:102C680000487047D400002038B50446D0F8185200
:102C780001F000F9C5F80C02D4F818324BB1D4F8B9
:102C88001C32DB6805F50371D5F80402984700206B
:102C980038BD0220FCE7000070B505460C46D0F8A8
:102CA80018620B7813F0600225D0202A07D1CA8851
:102CB8003AB9D0F81C329B6800224878984700201F
:102CC80070BD13F0800F0BD0D0F81C329B683146D2
:102CD80060789847E2883146284600F06BFCEEE7BA
:102CE8004B7886F80032CB8886F80132CA8831469C
:102CF80000F075FCE3E74B780A2BE0D1012202498A
:102D080000F058FCDBE700BFE401002010B50446E2
:102D1800812101F044F80121204601F040F8822188
:102D2800204601F03CF8D4F8183253B1D4F81C32DC
:102D38005B689847D4F8180202F060FA0023C4F8D8
:102D48001832002010BD38B50446037C73BB4FF41D
:102D580000730222812101F011F84FF4007302225E
:102D68000121204601F00AF8082303228221204687
:102D780001F004F84FF4077002F038FA0546C4F879
:102D8800180248B3D4F81C321B6898470023C5F8CA
:102D98001432C5F81832237CA3B14023D5F8042295
:102DA8000121204601F058F8002038BD40230222B6
:102DB800812100F0E3FF402302220121204600F098
:102DC800DDFFD1E74FF40073D5F804220121204636
:102DD80001F042F80020E8E70120E6E719B1C0F861
:102DE8001C120020704702207047D0F81832C3F830
:102DF8000812C3F8102200207047D0F81832C3F820
:102E0800041200207047D0F818229AB108B5037C44
:102E18003BB14023D2F80422012101F01DF8002023
:102E280008BD4FF40073D2F80422012101F014F810
:102E38000020F5E70220704798B108B50346D0F89E
:102E4800140210B10020C3F8140209B1C3F810121B
:102E58001846012380F8FC31027000F047FF00207B
:102E680008BD0220704719B1C0F81412002070473D
:102E78000220704708B500F073FF002008BD08B5B0
:102E8800D0F8143233B11B68984708B9002008BD40
:102E98000220FCE70220FAE708B5D0F814325B6894
:102EA8009847002008BD38B5044600F50275284645
:102EB80000F01DF90123C4F8F431B4F80E32C4F857
:102EC800F83194F8081201F01F03012B0ED03BB122
:102ED800022B10D001F08001204600F06EFF03E0C5
:102EE8002946204600F07DFA002038BD29462046B4
:102EF80000F09BFAF8E72946204600F0B2FAF3E71B
:102F080010B5044621BB1346D0F8F421032A01D09A
:102F1800002010BDD0F80C11D0F8102191420CD827
:102F2800D0F814321B6923B190F8FC21032A00D190
:102F38009847204600F06AFBEAE7891AC0F80C11A6
:102F48008A4228BF0A4692B2194600F057FBDFE7CB
:102F58000A46D0F814329B69002BD9D090F8FC119E
:102F68000329D5D111469847D2E710B50446002960
:102F780046D11346D0F8F421022A05D094F800323D
:102F8800012B39D0002010BDC169026A914219D8BD
:102F98008169B1FBF2F302FB13132BB98A4203D800
:102FA800D0F8F83199421AD3D4F81432DB682BB12F
:102FB80094F8FC21032A01D120469847204600F0C6
:102FC80030FBDBE78A1AC26192B2194600F0FFFAB9
:102FD80000231A461946204600F03EFFCEE700229D
:102FE800114600F0F4FA0021C4F8F8110B460A461D
:102FF800204600F031FFC1E7002384F80032C1E722
:103008000A46D0F814325B69002BBBD090F8FC114B
:103018000329B7D111469847B4E738B50446402389
:103028000022114600F0AAFE4025C4F810512B4694
:1030380000228021204600F0A1FE2562012384F8A9
:10304800FC31D4F818322BB1D4F814325B682179EA
:1030580020469847002038BD01740020704790F83A
:10306800FC3180F8FD31042380F8FC3100207047E2
:1030780090F8FD3180F8FC310020704708B590F8D1
:10308800FC31032B01D0002008BDD0F81432DB69D5
:10309800002BF8D09847F6E70020704700207047CB
:1030A8000020704708B5012280F8FC21D0F81422CE
:1030B800526801799047002008BD002302E00133DF
:1030C800DBB201300278002AF9D1184670474B88E4
:1030D800012B0BD110B50446C0F80432D0F81432D5
:1030E8009B689847204600F091FA10BD70470B780E
:1030F80003704B7843708B78CA7803EB02234380C4
:103108000B794A7903EB022383808B79CA7903EB25
:103118000223C380704710B50446802100F04DFE9D
:103128000021204600F049FE10BD30B583B00446AA
:103138000D464A88130A013B062B00F28180DFE81E
:1031480003F00413277F7F637000D0F810321B68E8
:103158000DF10601007C9847BDF8062012B1EB88F6
:10316800002B71D103B030BD037C43B9D0F81432C1
:103178009B6A0DF10600984702234370ECE7D0F8EC
:103188001432DB6A0DF10600984702234370E3E727
:10319800D2B2052A34D8DFE802F0030B131B232B25
:1031A800D0F810325B680DF10601007C9847D3E730
:1031B800D0F810329B680DF10601007C9847CBE7E8
:1031C800D0F81032DB680DF10601007C9847C3E7A0
:1031D800D0F810321B690DF10601007C9847BBE757
:1031E800D0F810325B690DF10601007C9847B3E70F
:1031F800D0F810329B690DF10601007C9847ABE7C7
:103208002946FFF788FFADE7037C33B9D0F81432BD
:103218005B6B0DF1060098479EE72946FFF77BFF99
:10322800A0E7037C43B9D0F814321B6B0DF10600FC
:103238009847072343708FE72946FFF76CFF91E70C
:103248002946FFF768FF8DE79A4228BF1A46ADF86E
:1032580006200146204600F0ADF983E738B504465C
:103268008B88E3B9CB88D3B98D7805F07F0590F8C2
:10327800FC31032B0CD080F8FE51294600F0D0FD1C
:10328800204600F0C3F935B1022384F8FC3109E087
:10329800FFF741FF06E0012384F8FC3102E02046F5
:1032A800FFF739FF38BD000038B504460D46897868
:1032B800254B1970012909D890F8FC31022B09D047
:1032C800032B1CD02946FFF726FF02E02946FFF70B
:1032D80022FF38BD81B14160032380F8FC31FFF73C
:1032E800CEFD022803D0204600F090F9F1E72946E8
:1032F8002046FFF710FFECE700F088F9E9E789B10D
:10330800436899421DD0D9B2FFF7C6FD0E4B197814
:1033180061602046FFF7B3FD02280DD0204600F07B
:1033280075F9D6E7022380F8FC314160FFF7B4FD58
:10333800204600F06BF9CCE729462046FFF7EBFE64
:10334800C7E700F063F9C4E7E501002008B5CB88BA
:10335800012B08D190F8FC31022B07D0032B0DD09C
:10336800FFF7D9FE01E0FFF7D6FE08BD01460023AE
:1033780041F8083F012200F01DF9F6E70122011D7E
:1033880000F018F9F1E708B590F8FC31023B012B81
:103398000CD80123C360D0F804320BB10323C360F7
:1033A800022200F10C0100F005F908BDFFF7B3FE99
:1033B800FBE710B5044690F8FC31023B012B0DD811
:1033C8004B88012B09D10023C0F80432D0F81432FD
:1033D8009B689847204600F019F910BDFFF79BFE3F
:1033E800FBE708B54B78092B1CD8DFE803F0121867
:1033F8001B151B09051B0F0CFFF797FE002008BDC6
:10340800FFF72CFFFAE7FFF74FFFF7E7FFF79EFFFD
:10341800F4E7FFF7B8FFF1E7FFF759FEEEE7FFF72C
:10342800C8FFEBE7FFF777FEE8E738B504460D4637
:1034380090F8FC31032B11D10B79012B0BD8D0F864
:1034480014329B689847EB880BB1002038BD2046A2
:1034580000F0DCF8F9E7FFF75EFEF6E7FFF75BFE42
:10346800F3E738B505460C468A880B7803F0600305
:10347800202B05D1D0F814329B689847002038BD1E
:10348800D1B26378012B25D0002B47D0032BF5D17F
:1034980090F8FC31022B05D0032B0AD02146FFF708
:1034A8003AFEEBE70029E9D08029E7D000F085FC57
:1034B800E4E7638823B919B1802901D000F07DFCC5
:1034C800D5F814329B68214628469847284600F0CC
:1034D8009DF8D3E790F8FC31022B05D0032B0AD0D6
:1034E8002146FFF718FEC9E70029C7D08029C5D0B3
:1034F80000F063FCC2E76388002BBFD111F07F0F97
:1035080003D1284600F082F8B8E700F064FCD5F84B
:1035180014329B68214628469847F2E790F8FC3118
:10352800022B05D0032B09D02146FFF7F4FDA5E7B0
:1035380011F07F0FA2D000F040FC9FE712F0800F3F
:1035480011D101F07F04103400EB04140434284630
:1035580000F04FFC70B10123236002222146284667
:1035680000F028F88AE701F07F04013400EB041426
:103578000434ECE700232360EFE7D0B170B50D46C3
:1035880016460446FFF799FD0130400080B23080AE
:10359800287003236B70022307E001345A1CD2B24F
:1035A800E9540233DBB20021A95421780029F4D16F
:1035B80070BD704710B513460222C0F8F42183612C
:1035C800C3610A46002100F039FC002010BD08B58F
:1035D80013460A46002100F031FC002008BD10B552
:1035E80013460322C0F8F421C0F80831C0F80C31A2
:1035F8000A46002100F030FC002010BD08B5134633
:103608000A46002100F028FC002008BD08B5042364
:10361800C0F8F43100231A46194600F00FFC0020C8
:1036280008BD08B50523C0F8F43100231A46194629
:1036380000F012FC002008BD30B589B000240194C8
:10364800124B1A6B42F080021A631A6B02F0800266
:103658000192019A02941A6B42F001021A631B6BE1
:1036680003F001030293029B094D22461C212846C0
:10367800FDF780FD1C23039301230493059406940E
:1036880003A92846FDF792FC09B030BD0038024076
:103698000000024070B50446002613E00B4D0022DE
:1036A80010212846FDF766FD04F080020421284613
:1036B800FDF760FD6400E4B2012210212846FDF701
:1036C80059FD0136072EE9DD70BD00BF000002403C
:1036D80070B506460D46002208210D48FDF74AFD43
:1036E800002406E03046FFF7D5FF2846FFF7D2FF53
:1036F8000134032CF6DD064C002208212046FDF794
:1037080039FD012208212046FDF734FD70BD00BFB8
:1037180000000240F8B582B101238340184A505C8A
:1037280018435054CE080F4601F00705002208211F
:103738001448FDF71FFD00240FE001238340104AC1
:10374800505C20EA03005054ECE7681CFFF7A2FF26
:103758000B4BD85DFFF79EFF0134032C0ADCC6F142
:103768000303A342F1D00020FFF794FF0020FFF7E6
:1037780091FFF1E7012208210248FDF7FBFCF8BDA3
:1037880094020020000002402DE9F84F06460F463B
:10379800C50800F007098846002414E04FEAC50B65
:1037A8000BF1070A0CE04FEAD8125FFA8AF1484693
:1037B800FFF7B0FF4FEA48085FFA88F80AF1FF3AC6
:1037C800D345F0DD0134032C08DCAC42E6D0002000
:1037D800FFF760FF0020FFF75DFFF3E7014B9F5500
:1037E800BDE8F88F1C02002010B5002406E0002177
:1037F800094B1955E0B2FFF7C7FF01341F2CF6DD5E
:10380800002305E000220549CA540549CA5401337A
:103818004F2BF7DD10BD00BFE80100209402002007
:103828001C02002010B5044600210920FFF750FFB4
:1038380007210B20FFF74CFF01210C20FFF748FF61
:1038480000210F20FFF744FFFFF7CEFF21460A2093
:10385800FFF73EFF10BD000010B507281ADC00F185
:103868001804012911DD0846FCF7FCFD41EC110B99
:103878009FED0F0B00F090FB00220F4B51EC100B4B
:10388800FCF7A2FCFDF708F90146C9B2E0B2FFF760
:103898007BFF10BD0F2802DC00F10804E1E71728C0
:1038A80002DCA0F10804DCE7A0F11804D9E700BFA6
:1038B80000000000000000400000F03F10B50024A8
:1038C80005E0044B195D2046FFF7C6FF01341F2CA5
:1038D800F7DD10BDE8010020FEE7000000B595B057
:1038E800002101912A4B1A6C42F080521A641B6C19
:1038F80003F080530193019B0291264B1A6842F40E
:1039080080421A601B6803F480430293029B0123E0
:1039180008934FF48033099302230E934FF48002E7
:103928000F920422109248221192129303231393A8
:1039380008A8FEF739F908BB0F2303930221049165
:10394800002305934FF480520692079303A8FEF7CD
:1039580063FBC0B9FEF70CFC0F4BA3FB00308009DA
:10396800FDF7F8FA0420FDF70BFB002211464FF093
:10397800FF30FDF7AFFA15B05DF804FB40F22F11E8
:103988000648FFF7A9FF40F23D110448FFF7A4FFDE
:103998000038024000700040D34D62100054000807
:1039A80008B5FDF745FAFFF799FFFFF745FE00F068
:1039B80097F80220FFF736FF054B93F82030012BCC
:1039C800FAD1FFF77BFF024B002283F82020F3E7B0
:1039D800E801002010B582B000240094214B5A6CF5
:1039E80042F480425A645A6C02F480420092009A6F
:1039F80001941A6C42F080521A641B6C03F08053D5
:103A08000193019B0320FDF753FA224621466FF0EC
:103A18000B00FDF75FFA224621466FF00A00FDF71A
:103A280059FA224621466FF00900FDF753FA22465B
:103A380021466FF00400FDF74DFA224621466FF04B
:103A48000300FDF747FA224621466FF00100FDF713
:103A580041FA224621464FF0FF30FDF73BFA02B00B
:103A680010BD00BF003802407047FEE7FEE7FEE7E2
:103A7800FEE770477047704708B5FDF7F3F9FDF7A3
:103A880090FA08BD08B50248FDF756FC08BD00BF0E
:103A9800800500200F49D1F8883043F47003C1F83D
:103AA80088300D4B1A6842F001021A6000209860B5
:103AB8001A6822F0847222F480321A60074A5A6027
:103AC8001A6822F480221A60D8604FF000638B6075
:103AD800704700BF00ED00E00038024010300024BD
:103AE80010B5094C002209492046FFF7A5F90849F5
:103AF8002046FFF7B8F907492046FFF76FF9204637
:103B0800FFF7B8F910BD00BF0C03002044010020E6
:103B1800E00000201C0100200020704700207047B2
:103B280070B504460E46134D01462846FFF765F961
:103B38002846FFF768F9002304E00F4A0021D15412
:103B48000133DBB2272BF8D93268013221460A4803
:103B580001F014FC094B01221A70002305E0064A03
:103B6800D25C303A0649CA5401331F2BF7DD0020D6
:103B780070BD00BF0C030020E402002008020020F2
:103B8800E801002010B5064C002206492046FFF740
:103B98002CF905492046FFF730F9002010BD00BF79
:103BA8000C03002058050020300500200368B3F1FD
:103BB800A04F00D0704710B586B04FF4C0530193A2
:103BC8000223029300240394032304930A230593F6
:103BD80001A90E48FDF7EAF90D4B5A6B42F0800235
:103BE8005A6300945A6C42F480425A645B6C03F442
:103BF80080430093009B224621464320FDF76AF943
:103C08004320FDF79BF906B010BD00BF000002403D
:103C18000038024008B500F56F71D0F8EC03FFF7E3
:103C280042F908BD08B5C1EBC10293000344D3F8BB
:103C38000422D0F8EC03FFF763F908BD08B5C1EB1F
:103C4800C102930003445A6CD0F8EC03FFF78DF9D6
:103C580008BD08B5D0F8EC03FFF710FA08BD10B599
:103C68000446C3684BB10121D4F8EC03FFF7F4F91B
:103C7800D4F8EC03FFF7D1F910BD0021F4E70000F8
:103C880010B50446D0F8EC03FFF7E9F92268D2F83A
:103C9800003E43F00103C2F8003E236A23B1034A01
:103CA800136943F00603136110BD00BF00ED00E087
:103CB80008B5D0F8EC03FFF7DBF908BD08B5D0F874
:103CC800EC03FFF7EBF908BD08B5D0F8EC03FFF7F4
:103CD800E3F908BD08B5D0F8EC03FFF7E1F908BD32
:103CE80008B5D0F8EC03FFF7DDF908BD03780BB190
:103CF8000020704710B503461748C0F8EC33C3F8E6
:103D080020024FF0A0430360042343600222C260F4
:103D18000023036143618261C36103624362C3623A
:103D28000363FDF783FA80B90B4C80212046FDF729
:103D380037FF402200212046FDF70EFF8022012197
:103D48002046FDF709FF002010BD4FF4A571034878
:103D5800FFF7C2FDE8E700BF800500201054000807
:103D680008B5D0F82002FDF7D1FA18B1022803D01F
:103D7800022008BD0020FCE70120FAE710B51C4628
:103D880013462246D0F82002FDF7CAFD18B10228D2
:103D980003D0022010BD0020FCE70120FAE708B597
:103DA800D0F82002FDF7F0FD18B1022803D0022058
:103DB80008BD0020FCE70120FAE708B5D0F820028A
:103DC800FDF76CFE18B1022803D0022008BD0020C0
:103DD800FCE70120FAE708B5D0F82002FDF791FECC
:103DE80018B1022803D0022008BD0020FCE70120FA
:103DF800FAE7D0F8203211F0800F08D101F07F01E6
:103E0800C1EBC1018A00134493F8FA01704701F02D
:103E18007F01C1EBC1018A00134493F83A0070474F
:103E280008B5D0F82002FDF769FD18B1022803D0C3
:103E3800022008BD0020FCE70120FAE708B5D0F809
:103E48002002FDF702FE18B1022803D0022008BDA7
:103E58000020FCE70120FAE708B5D0F82002FDF7BA
:103E6800BEFD18B1022803D0022008BD0020FCE7DF
:103E78000120FAE708B5D0F82002FDF7DDFD08BDFE
:103E880012230B80004870472C01002004230B806C
:103E9800004870474001002008B50A4628B1054986
:103EA8000548FFF76AFB034808BD02490248FFF7C7
:103EB80064FBF8E7700900202454000810B5044C8E
:103EC8000A4621460348FFF758FB204610BD00BFAD
:103ED800700900203C54000808B50A4628B1054975
:103EE8000548FFF74AFB034808BD02490248FFF7A7
:103EF80044FBF8E7700900205054000808B50A464A
:103F080028B105490548FFF738FB034808BD0249B1
:103F18000248FFF732FBF8E77009002060540008F8
:103F280008B50A4628B105490548FFF726FB0348A6
:103F380008BD02490248FFF720FBF8E77009002096
:103F48006C540008DFF834D0002103E00C4B5B58B8
:103F5800435004310B480C4B42189A42F6D30B4A93
:103F680002E0002342F8043B094B9A42F9D3FFF7D9
:103F780091FD01F017F9FFF713FD704700000220CB
:103F8800A054000800000020C8010020C80100203B
:103F9800740B0020FEE700002DE9F04F2DED028B99
:103FA800DFF824A38BB057EC106B55EC114B00F0E5
:103FB8008FF99AF90080B0EE408AF0EE608AB8F185
:103FC800FF3F33D022462B4620462946FCF74EFDBC
:103FD800834658BB32463B4630463946FCF746FDD9
:103FE8008146002866D13046394600220023FCF776
:103FF8000BFD20B30022002320462946FCF704FDD0
:10400800834600287DD09FEDA67B0122AA4BCDF8E0
:1040180020900092CDE90267CDE904458DED067B3D
:104028000193B8F1000F5ED09FED9F8BB0EE480A68
:10403800F0EE680A0BB0BDEC028BBDE8F08FB0EE75
:10404800480AF0EE680A00F073FF8046002800F086
:1040580082804FF000084FF0000951EC180B4246DF
:104068004B46FCF7D1FC0028E0D047EC106B00F081
:104078005FFF0028DAD045EC104B00F059FF00280C
:10408800D4D09AF900308C4A019204210022022BE4
:10409800CDE90267CDE90445CDE90689009108928A
:1040A80003D0684600F04CFF10BB01F075F82223DE
:1040B80003601DE00022002320462946FCF7A4FCEB
:1040C8000028B3D09FED788B01227B4BCDF820B030
:1040D800B8F1020F0092CDE90267CDE904458DEDF4
:1040E800068B0193A2D0684600F02AFF002878D0FA
:1040F800089B1BB101F050F8089B03609DED068BEF
:1041080094E745EC104B00F013FF00288ED00022F6
:10411800002320462946FCF781FC002886D0664A01
:104128009AF90030CDF820B00121CDE90267CDE938
:104138000445CDE90012002B58D060490020022B1D
:10414800CDE9060156D101F027F821230360089B29
:10415800002BD3D0CEE747EC106B00F0E9FE002827
:104168003FF477AF45EC104B00F0E2FE00283FF437
:1041780070AF53EC182B18EE100A1946FCF776FCB2
:104188009AF9009000286FD10323DFF82CC108901A
:104198002946204600930022494BCDF804C0CDE9BA
:1041A8000445CDE90267FCF7C7F904460D46B9F1A5
:1041B800000F25D1DFF814914FF06048002200234A
:1041C80030463946CDE90689FCF728FC38BB6846F5
:1041D80000F0B6FE0028BAD100F0DEFF222303600B
:1041E800B5E700F0D9FF2123036081E79FED2C7B21
:1041F8008DED067B684600F0A3FE0028A7D1A2E754
:104208009FED2B7B00220023304639468DED067B3F
:10421800FCF704FCB0B9B9F1020FDDD0D7E745ECE3
:10422800104B00F099FE22462B4651EC100BFCF780
:10423800EBFBB0B9234B9AF900904FF06042CDE9FF
:104248000623E8E745EC104B00F086FE22462B4695
:1042580051EC100BFCF7D8FB18B9184B0022CDE92C
:1042680006239AF90090D6E70122134BCDF8208057
:104278000092CDE90267CDE904450193B9F1000F39
:10428800B4D00022002310461946FCF77FFAB9F192
:10429800020FCDE906013FF456AFABE7AFF300805C
:1042A8000000000000000000000000000000F03FD7
:1042B800000000000000F07F7C5400080000F0FFC0
:1042C8000000E03FFFFFEFC760010020FFFFEF475E
:1042D8002DE9F04F51EC110B21F0004555EA000390
:1042E80093B010D059EC108B6D4B29F000449C42D0
:1042F8004E4610EE10AA0DDD04F1404404F580147A
:1043080054EA0A0356D16749002041EC100B13B058
:10431800BDE8F08F0F4611EE10CA48D09D42EBDC85
:104328005F4B9D425FD0002ECDE900015FDB4FF06F
:10433800000BBCF1000F0ED1594B9D4243D0594B95
:104348009D4200F08C80B7F1804F00F09E80564B64
:104358009F4200F0B88349EC108B00F0DFFD51EC70
:10436800100BBAF1000F06D1002C5AD04D4B26F095
:1043780040429A4255D0F60F06F1FF3A5BEA0A032B
:1043880073D04A4B9D4240F3998003F104739D42D8
:1043980040F33884464B9C4272DD002F72DD3EA309
:1043A800D3E9002310461946FCF7C6F8ADE7B8F183
:1043B800000F05D03F4813B0BDE8F04F00F0C4BD72
:1043C800A542F7DCACE704F1404303F5801353EA58
:1043D8000A0398D0364B9C4240F37F83002F51DB71
:1043E800DDE9000191E7BCF1000F9CD084E7324B76
:1043F8009D4231DCA3F154739D4298DD2B15A3F245
:10440800FF33142B40F3A183C3F134032CFA03F2D6
:1044180002FA03F363458AD102F00102C2F1020BEA
:1044280087E7002F05DA02460B4600201D49FCF7F6
:10443800ADF9002EBFF669AF04F1404404F58014CD
:1044480054EA0B0300F03A84BBF1010F7FF45DAF2F
:1044580001F10043194658E74FF0020B69E7002FB6
:10446800C0F24483404649464FE742464B46104611
:104478001946FBF7A9FE02460B46FCF787F944E705
:10448800002F8CDB002000213FE742464B46404688
:104498004946FCF751F838E79C7500883CE4377EBC
:1044A8000000F07F0000F03F0000E03F0000E04126
:1044B800FFFFEF3F5C540008FFFF3F43B4F5801F48
:1044C80080F260830022D04BFCF736F86FF0340698
:1044D8000C462315CD4AC4F31304A3F2FF3344F06A
:1044E8007F559E1994420D9645F4401540F33D833F
:1044F800C74B9C4240F301849FEDAD7B8DED087B5B
:104508008DED107B9FEDAC7B8DED067B01360D9616
:10451800A5F580154FF00008DDE906232946064673
:10452800FBF752FEDDE90623CDE90A0130462946AC
:10453800FBF74CFE02460B460020B649FCF726F96D
:1045480003460C46CDE90E3402460B46DDE90A0166
:10455800FBF7F2FF6B1043F0005303F500230A4604
:104568002F46014603EB08050023CDE9021202930A
:10457800DDE902890024CDE904122B462246404693
:104588004946FBF7D9FF02460B46DDE90A01FBF76E
:104598001BFEDDE90623CDE90A0120462946FBF783
:1045A80013FE02460B4630463946FBF70DFE4246DF
:1045B8004B46FBF7C1FF02460B46DDE90A01FBF754
:1045C80003FEDDE90E23FBF7B7FFDDE90445CDE97E
:1045D800060122462B4620462946FBF7ADFF78A365
:1045E800D3E9002304460D46FBF7A6FF76A3D3E9DB
:1045F8000023FBF7EBFD22462B46FBF79DFF74A338
:10460800D3E90023FBF7E2FD22462B46FBF794FF94
:1046180071A3D3E90023FBF7D9FD22462B46FBF70C
:104628008BFF6FA3D3E90023FBF7D0FD22462B466F
:10463800FBF782FF6CA3D3E90023FBF7C7FD2246F3
:1046480006460F462B4620462946FBF775FF0246CD
:104658000B4630463946FBF76FFF424604460D4687
:104668004B46DDE90401FBF7B1FDDDE90623FBF765
:1046780063FF22462B46FBF7A9FD424606460F4636
:104688004B4640464946FBF757FF0022624BCDE9AF
:104698000A01FBF79BFD32463B46FBF797FD029864
:1046A8000D46044622462B4640464946FBF744FF42
:1046B800002280468946584B20462946FBF784FD50
:1046C800DDE90A23FBF780FD02460B4630463946F2
:1046D800FBF77AFDDDE90423FBF72EFF22460646A9
:1046E8000F462B46DDE90601FBF726FF02460B467F
:1046F80030463946FBF76AFD06460F4602460B462A
:1047080040464946FBF762FD029839A3D3E90023E6
:1047180004460D46FBF710FF4246CDE904014B461F
:1047280020462946FBF750FD02460B4630463946DF
:10473800FBF74AFD30A3D3E90023FBF7FDFE30A3C6
:10474800D3E9002306460F4620462946FBF7F4FE28
:1047580002460B4630463946FBF738FDDDE91023A3
:10476800FBF734FD06460D980F46FBF77BFE3246F5
:10477800804689463B46DDE90401FBF727FDDDE974
:104788000823FBF723FD42464B46FBF71FFD029823
:1047980042464B4604460D46FBF716FDDDE9082365
:1047A800FBF712FDDDE9042338E000BFAFF300801A
:1047B8000000000000000000000000000000F03FC2
:1047C800EF4E454A287ECA3F65DBC9934A86CD3FEE
:1047D80001411DA96074D13F4D268F515555D53FD4
:1047E800FFAB6FDBB66DDB3F033333333333E33F6C
:1047F800000000E009C7EE3FFD033ADC09C7EE3FC1
:10480800F5015B14E02F3EBE000040438E98030084
:1048180079B60B000000F03F00000840FBF7D4FC1D
:104828000B46024639463046FBF7CEFC0BF1FF3308
:1048380053EA0A03CDE9040100F05F819FEDD27BC2
:104848008DED027BDDE900AB002356465F46CDE9DE
:1048580000670093DDE90067504632463B465946FB
:10486800FBF7B2FC22462B46FBF766FE5246804613
:1048780089465B46DDE90401FBF75EFE02460B460E
:1048880040464946FBF7A2FC3246804689463B46ED
:1048980020462946CDE90489FBF74EFE0B46024621
:1048A80006460F4640464946FBF790FCD04B9942D6
:1048B80004460D468A4640F3258101F13F4303F53E
:1048C800E003034340F0FE81B1A3D3E90023DDE90F
:1048D8000401FBF77BFC3246804689463B4620466E
:1048E8002946FBF771FC02460B4640464946FCF751
:1048F800B3F8002840F0E681A8464FEA2853A3F20F
:10490800FE324FF4801313415344C3F30A52B94D96
:10491800A2F2FF321541C3F3130423EA0501002074
:10492800C2F1140B44F48014BAF1000F02460B468E
:1049380044FA0BFB30463946B8BFCBF1000BFBF706
:1049480043FC06460F463246DDE904013B46FBF7C9
:104958003DFC4FEA0B5A0D4600248FA3D3E90023F0
:1049680020462946FBF7E8FD3246804689463B4605
:1049780020462946FBF728FC02460B46DDE90401E0
:10498800FBF722FC86A3D3E90023FBF7D5FD86A31A
:10499800D3E9002306460F4620462946FBF7CCFDFF
:1049A80002460B4630463946FBF710FC06460F46D2
:1049B80002460B4640464946FBF708FC42464B4632
:1049C80004460D46FBF700FC02460B4630463946C6
:1049D800FBF7FAFB2246804689462B4620462946A5
:1049E800FBF7AAFD72A3D3E9002306460F46FBF79F
:1049F800A3FD71A3D3E90023FBF7E6FB32463B4650
:104A0800FBF79AFD6EA3D3E90023FBF7DFFB3246E1
:104A18003B46FBF791FD6CA3D3E90023FBF7D4FBDE
:104A280032463B46FBF788FD69A3D3E90023FBF731
:104A3800CDFB32463B46FBF77FFD02460B46204640
:104A48002946FBF7C1FB06460F4602460B462046A1
:104A58002946FBF771FD0022CDE900014FF08043A4
:104A680030463946FBF7B0FB02460B46DDE900014C
:104A7800FBF78CFE424606460F464B462046294623
:104A8800FBF75AFD42464B46FBF7A0FB02460B4696
:104A980030463946FBF798FB22462B46FBF794FB3A
:104AA80002460B4600205449FBF78EFB8A44BAF5B0
:104AB800801F02460B46C0F230815146DDE90223D1
:104AC800FBF73AFD21E4002EFFF645AC49EC108BCC
:104AD80013B0BDE8F04F00F057B9002FBFF6D2ACC5
:104AE800DDE90034184604F100410EE442464B4625
:104AF80000204149FBF74AFE07E49FED377B8DED27
:104B0800027B9FE63D4B21F00048984540F3E88042
:104B18003B4B0B4403430AD132463B46FBF754FB5D
:104B2800DDE90423FBF78EFF00283FF4E6AEDDE95C
:104B380002012BA3D3E90023FBF7FEFC28A3D3E94A
:104B48000023FBF7F9FCFFF7E0BBBCF1000F40F0D6
:104B5800D080C3F1140345FA03F202FA03F3AB421F
:104B680000F0E380E346FFF7EABB9FED1F7B8DED86
:104B7800087B8DED107B9FED047B4FF000088DEDD9
:104B8800067BC9E40026A4E4000000000000F03F12
:104B9800FE822B654715973C00000000432EE63F38
:104BA800EF39FAFE422EE63F396CA80C615C20BE54
:104BB800D0A4BE726937663EF16BD2C541BDBB3E1B
:104BC8002CDE25AF6A56113F93BDBE166CC1663FF9
:104BD8003E5555555555C53F000000000000F0BF33
:104BE80059F3F8C21F6EA501000000000000000084
:104BF800FFFF8F40FFFF0F000000F03FFFCB90400A
:104C080000346F3F5C4B9C427FF73AAC5B4B9C4255
:104C18003FF7C3AB0022594BFBF7D6FA46A3D3E9BB
:104C2800002304460D46FBF787FC45A3D3E9002380
:104C38008046894620462946FBF77EFC0022CDE9BE
:104C480002014F4B20462946FBF776FC02460B46ED
:104C58003DA1D1E90001FBF7B7FA22462B46FBF745
:104C68006BFC02460B4600204649FBF7ADFA22468C
:104C780006460F462B4620462946FBF75DFC0246B2
:104C88000B4630463946FBF757FC31A3D3E90023DE
:104C9800FBF752FC02460B46DDE90201FBF794FAEA
:104CA80002460B4606460F4640464946FBF78EFA33
:104CB800002004460D4642464B46AFE502460B46E9
:104CC800FFF7D5BBDDE9020123A3D3E90023FBF7F6
:104CD80033FC21A3D3E90023FBF72EFCFFF715BB18
:104CE800284B98453FF709AEDDE9002392469346E5
:104CF80032E64FF0000BFFF72EBB9FED197B8DEDD1
:104D0800087B9FED197B8DED107B9FED197B4FF490
:104D180080288DED067BFFF7FFBB584643EC102B30
:104D280000F0A2F951EC100BC8E602F00102C2F142
:104D3800020BFFF704BB00BF000000604715F73FF8
:104D480044DF5DF80BAE543E555555555555D53F86
:104D5800FE822B654715F73F9C7500883CE4377E3B
:104D68000000004003B8E23F06D0CF43EBFD4C3EC5
:104D7800000000000000F83FFEFFEF3F0000F03F9A
:104D88000000D03F0000E03F2DE9F041624A57ECB7
:104D9800106BBA4300F09580002F3B4610EE101AB6
:104DA800344654DD3F1500F0AF80C3F31303A7F278
:104DB800FF3743F48013E20FF90702EB43034FEA8E
:104DC800440503D5ED0F05EB4303A50000267F102E
:104DD800B44616224FF400110CEB010098424FEA3A
:104DE800D5744FEA450503DC1B1A00EB010C0E4491
:104DF800013A04EB43034FEA5101EDD110469646C0
:104E080020244FF0004209E052D05B00013C03EB44
:104E1800D5734FEA52024FEA450536D0634502EB97
:104E28000E01F1DD002901EB020E0ADBE046A3EBDF
:104E38000C03A94288BF03F1FF336D1A1044C4461E
:104E4800E3E7BEF1000FF1DB0CF10108EFE727F013
:104E5800004232432AD0002F49D1CA0A153B4905DE
:104E6800002AFAD012F4801001D050E020465200F7
:104E7800D50200F10104F9D5C4F1200501FA04F4C2
:104E8800E9401F1A41EA02038FE72B4329D144085E
:104E98007110F30701F17F5101F5001148BF44F08B
:104EA800004401EB0753224643EC102BBDE8F08188
:104EB800A942AAD8002901EB020EC2DB98460023BA
:104EC800BBE710EE102A3B4610EE100A3946FBF7F6
:104ED80033FB32463B46FBF779F941EC100BBDE852
:104EE800F081421C16BF421C01365408D0E710EE70
:104EF800102A30463946FBF767F902460B46FBF79E
:104F080045FC41EC100BD1E71A463B46AAE70C4694
:104F180020254FF0FF30B3E70000F07F51EC100B75
:104F280010EE102A21F0004343EC102B704700BF0D
:104F380010EE903A43F0004000F58010C00F704723
:104F480000207047000000009FED010B704700BF74
:104F5800000000000000F87FF0B551EC100BC1F321
:104F68000A55A5F2FF32132A83B00B464FEAD176D1
:104F780010EE104A2FDC002A4ADB394D154101EAB0
:104F88000507074323D06D0829400C430CD04FF484
:104F98008021132A23EA050541FA02F343EA0503AF
:104FA8000CBF4FF0004400242E4A02EBC6062046F0
:104FB800D6E90045024629462046FBF707F9CDE920
:104FC800000122462B46DDE90001FBF7FDF841EC24
:104FD800100B03B0F0BD332A07DDB2F5806FF6D1B0
:104FE80010EE102AFBF7F2F8F1E7A5F213454FF09F
:104FF800FF32EA401042EAD052081042D4D04FF0B3
:10500800804124EA020241FA05F542EA0504CBE7A9
:1050180021F000420243DAD0C1F3130202435442A2
:10502800104D1443240B05EBC6004F0C04F400216B
:10503800D0E900457F0410EE102A41EA0703204614
:105048002946FBF7C3F8CDE900012B462246DDE9E6
:105058000001FBF7B9F821F0004343EAC671B6E74F
:10506800FFFF0F008054000838B553EC102BC3F332
:105078000A511C46054629BB10EE101A23F00044BD
:1050880021431ED019460022394B3A4C10EE100A23
:10509800FBF752FAA54202460B4636DB0C46C1F333
:1050A8000A513639294440F2FE70814235DC002924
:1050B80014DD24F0FF4424F4E00444EA015343ECF3
:1050C800102B38BD40F2FF708142EBD110EE100A70
:1050D8001946FBF77BF841EC100B38BD11F1350F81
:1050E8001EDA4CF250318D4243EC112B28DD9FED36
:1050F8001C0B00F043F81AA3D3E9002351EC100B62
:10510800FBF71AFA41EC100B38BD17A3D3E90023BB
:10511800FBF712FA41EC100B38BD43EC112BE6E714
:1051280024F0FF4424F4E004363144EA01531046E5
:1051380019460022104BFBF7FFF941EC100B38BD64
:105148009FED090B00F01AF807A3D3E9002351ECEF
:10515800100BFBF7F1F941EC100B38BDAFF30080F1
:105168009C7500883CE4377E59F3F8C21F6EA50190
:1051780000005043B03CFFFF0000903C53EC102B64
:1051880011EE900A23F0004100F0004041EA0003CC
:1051980043EC102B704700BF014B1868704700BFE5
:1051A8006401002070B50D4E0D4CA41BA410002501
:1051B800A54209D10B4E0C4C00F006F9A41BA41013
:1051C8000025A54205D170BD56F825309847013510
:1051D800EEE756F8253098470135F2E7985400086D
:1051E80098540008985400089C540008024B014643
:1051F800186800F059B800BF64010020024B01464E
:10520800186800F003B800BF6401002038B50546EF
:10521800002945D051F8043C0C1F002BB8BFE418F6
:1052280000F0C1F81F4A1368104633B96360146070
:105238002846BDE8384000F0B7B8A3420CD9216829
:105248006218934204BF1A685B68636004BF52180F
:1052580022600460ECE713465A680AB1A242FAD900
:1052680019685818A0420BD1206801445818824286
:105278001960DDD1106852685A6001441960D7E797
:1052880002D90C232B60D3E7206821188A4204BF77
:1052980011685268626004BF091821605C60C7E742
:1052A80038BD00BF0C02002070B5CD1C25F00305E9
:1052B80008350C2D38BF0C25002D064601DBA94208
:1052C80003D90C233360002070BD00F06CF8214A2C
:1052D8001468214691B9204C23681BB9304600F068
:1052E8003DF820602946304600F038F8431C24D1A8
:1052F8000C233360304600F057F8E4E70B685B1B7B
:1053080018D40B2B0FD90B60CD50CC18304600F0B9
:105318004BF804F10B00231D20F00700C31AD3D06B
:105328005A42E250D0E78C424B6816BF6360136064
:105338000C46EBE70C464968CCE7C41C24F0030490
:10534800A04205D0211A304600F008F80130CFD02D
:105358002560DBE70C0200201002002038B5064C5F
:10536800002305460846236000F020F8431C02D1BC
:10537800236803B12B6038BD700B002010B50B46B5
:1053880062B1013A08D013F8014B00F8014B002C28
:10539800F7D1581A013810BD0022027013F8012BFA
:1053A800002AFBD1F5E7704770470000044A054919
:1053B8001368002B08BF0B46184410601846704746
:1053C80014020020780B0020F8B500BFF8BC08BC18
:1053D8009E467047F8B500BFF8BC08BC9E467047AB
:1053E800000000000000000001020304060708098D
:1053F80000000000010203042E2E2F5372632F6D4C
:1054080061696E2E630000002E2E2F5372632F7574
:105418007362645F636F6E662E63000053544D338E
:1054280032205669727475616C20436F6D506F72CB
:105438007400000053544D6963726F656C65637442
:10544800726F6E6963730000303030303030303046
:10545800303031410000000043444320436F6E6602
:105468006967000043444320496E7465726661634E
:1054780065000000706F77000000000000003043F6
:0854880000000000000030C329
:0854900090B6FF7F010000004F
:04549800AD0100085A
:04549C00890100087A
:1054A000010000001000000009024300020100C0DA
:1054B0003209040000010202010005240010010568
:1054C00024010001042402020524060001070582CC
:1054D0000308001009040100020A0000000705018A
:1054E000024000000705810240000000090243005D
:1054F000020100C03209040000010202010005247B
:105500000010010524010001042402020524060004
:10551000010705820308001009040100020A0000C7
:1055200000070501020002000705810200020000D9
:1055300009074300020104C032090400000102020D
:1055400001000524001001052401000104240202C9
:105550000524060001070582030800FF0904010075
:10556000020A000000070501024000000705810251
:10557000400000000A060002000000400100000098
:105580004F2D0008152D0008A12C00080000000078
:10559000172C0008052C0008712C000800000000E2
:1055A00000000000000000004D2C0008412C000805
:1055B000592C0008652C00080024F4008D3B0008DD
:1055C000213B0008253B0008293B0008120100028E
:1055D0000202004083044057000201020301000060
:1055E00004030904893E0008953E0008C53E0008F2
:1055F000A13E0008E13E0008053F0008293F0008E1
:105600000100000068010020000000000000000010
:10561000000000000000000000000000000000008A
:10562000000000000000000000000000000000007A
:10563000000000000000000000000000000000006A
:10564000000000000000000000000000000000005A
:10565000000000000000000000000000000000004A
:08566000000000000000000042
:0400000508003F4D63
:00000001FF
