:020000040800F2
:1000000000000220A51B00083D1B00083F1B000844
:10001000411B0008431B0008451B000800000000AE
:10002000000000000000000000000000471B000866
:10003000491B0008000000004B1B00084D1B000876
:10004000F51B0008F51B0008F51B0008F51B000850
:10005000F51B0008F51B0008F51B0008F51B000840
:10006000F51B0008F51B0008F51B0008F51B000830
:10007000F51B0008F51B0008F51B0008F51B000820
:10008000F51B0008F51B0008F51B0008F51B000810
:10009000F51B0008F51B0008F51B0008F51B000800
:1000A000F51B0008F51B0008F51B0008F51B0008F0
:1000B000F51B0008F51B0008F51B0008F51B0008E0
:1000C000F51B0008F51B0008F51B0008F51B0008D0
:1000D000F51B0008F51B0008F51B0008F51B0008C0
:1000E000F51B0008F51B0008F51B0008F51B0008B0
:1000F000F51B0008F51B0008F51B0008F51B0008A0
:10010000F51B0008F51B0008F51B0008F51B00088F
:10011000F51B0008F51B0008F51B0008F51B00087F
:10012000F51B0008F51B0008F51B0008F51B00086F
:10013000F51B0008F51B0008F51B0008F51B00085F
:10014000F51B0008F51B0008F51B0008F51B00084F
:10015000F51B0008F51B0008F51B0008F51B00083F
:10016000F51B0008F51B0008F51B0008F51B00082F
:10017000F51B0008F51B0008F51B00080000000037
:08018000F51B0008F51B000847
:1001880010B5054C237833B9044B13B10448AFF3C9
:1001980000800123237010BD7400002000000000BF
:1001A8004C2E000808B5034B1BB103490348AFF3B5
:1001B800008008BD00000000780000204C2E0008D8
:1001C80081F0004102E000BF83F0004330B54FEA00
:1001D80041044FEA430594EA050F08BF90EA020F6D
:1001E8001FBF54EA000C55EA020C7FEA645C7FEA00
:1001F800655C00F0E2804FEA5454D4EB5555B8BF23
:100208006D420CDD2C4480EA020281EA030382EA93
:10021800000083EA010180EA020281EA0303362D25
:1002280088BF30BD11F0004F4FEA01314FF4801CF8
:100238004CEA113102D0404261EB410113F0004F0A
:100248004FEA03334CEA133302D0524263EB4303C1
:1002580094EA050F00F0A780A4F10104D5F1200E5F
:100268000DDB02FA0EFC22FA05F2801841F10001BA
:1002780003FA0EF2801843FA05F359410EE0A5F18E
:1002880020050EF1200E012A03FA0EFC28BF4CF0BF
:10029800020C43FA05F3C01851EBE37101F0004575
:1002A80007D54FF0000EDCF1000C7EEB00006EEB82
:1002B8000101B1F5801F1BD3B1F5001F0CD349080C
:1002C8005FEA30004FEA3C0C04F101044FEA445263
:1002D80012F5800F80F09A80BCF1004F08BF5FEAEA
:1002E800500C50F1000041EB045141EA050130BDCA
:1002F8005FEA4C0C404141EB010111F4801FA4F16D
:100308000104E9D191F0000F04BF01460020B1FAC1
:1003180081F308BF2033A3F10B03B3F120020CDAF9
:100328000C3208DD02F1140CC2F10C0201FA0CF0D7
:1003380021FA02F10CE002F11402D8BFC2F1200C3C
:1003480001FA02F120FA0CFCDCBF41EA0C019040F2
:10035800E41AA2BF01EB0451294330BD6FEA04043B
:100368001F3C1CDA0C340EDC04F11404C4F1200226
:1003780020FA04F001FA02F340EA030021FA04F338
:1003880045EA030130BDC4F10C04C4F1200220FA8F
:1003980002F001FA04F340EA0300294630BD21FACD
:1003A80004F0294630BD94F0000F83F4801306BF93
:1003B80081F480110134013D4EE77FEA645C18BF87
:1003C8007FEA655C29D094EA050F08BF90EA020F1E
:1003D80005D054EA000C04BF1946104630BD91EA16
:1003E800030F1EBF0021002030BD5FEA545C05D119
:1003F8004000494128BF41F0004130BD14F5800458
:100408003CBF01F5801130BD01F0004545F0FE41CB
:1004180041F470014FF0000030BD7FEA645C1ABF00
:10042800194610467FEA655C1CBF0B46024650EA37
:10043800013406BF52EA033591EA030F41F4002163
:1004480030BD00BF90F0000F04BF0021704730B5E9
:100458004FF4806404F132044FF000054FF00001BE
:1004680050E700BF90F0000F04BF0021704730B57F
:100478004FF4806404F1320410F0004548BF404254
:100488004FF000013EE700BF42004FEAE2014FEAA9
:1004980031014FEA02701FBF12F07F4393F07F4F84
:1004A80081F06051704732F07F4208BF704793F087
:1004B8007F4F04BF41F40021704730B54FF460749A
:1004C80001F0004521F000411CE700BF50EA01029D
:1004D80008BF704730B54FF000050AE050EA010246
:1004E80008BF704730B511F0004502D5404261EBB6
:1004F80041014FF4806404F132045FEA915C3FF4F7
:10050800D8AE4FF003025FEADC0C18BF03325FEA93
:10051800DC0C18BF033202EBDC02C2F1200300FA44
:1005280003FC20FA02F001FA03FE40EA0E0021FA69
:1005380002F11444BDE600BF70B54FF0FF0C4CF457
:10054800E06C1CEA11541DBF1CEA135594EA0C0F09
:1005580095EA0C0F00F0DEF82C4481EA030621EA44
:100568004C5123EA4C5350EA013518BF52EA03357F
:1005780041F4801143F4801338D0A0FB02CE4FF031
:100588000005E1FB02E506F00042E0FB03E54FF061
:100598000006E1FB03569CF0000F18BF4EF0010E59
:1005A800A4F1FF04B6F5007F64F5407404D25FEA55
:1005B8004E0E6D4146EB060642EAC62141EA555108
:1005C8004FEAC52040EA5E504FEACE2EB4F1FD0C4A
:1005D80088BFBCF5E06F1ED8BEF1004F08BF5FEAC8
:1005E800500E50F1000041EB045170BD06F000467A
:1005F80046EA010140EA020081EA0301B4EB5C0427
:10060800C2BFD4EB0C0541EA045170BD41F480111E
:100618004FF0000E013C00F3AB8014F1360FDEBF43
:10062800002001F0004170BDC4F10004203C35DA1F
:100638000C341BDC04F11404C4F1200500FA05F3A2
:1006480020FA04F001FA05F240EA020001F0004243
:1006580021F0004110EBD37021FA04F642EB0601B9
:100668005EEA430E08BF20EAD37070BDC4F10C04E3
:10067800C4F1200500FA04F320FA05F001FA04F2A7
:1006880040EA020001F0004110EBD37041F1000193
:100698005EEA430E08BF20EAD37070BDC4F120059E
:1006A80000FA05F24EEA020E20FA04F301FA05F206
:1006B80043EA020321FA04F001F0004121FA04F2AE
:1006C80020EA020000EBD3705EEA430E08BF20EA7E
:1006D800D37070BD94F0000F0FD101F000464000B8
:1006E80041EB010111F4801F08BF013CF7D041EA3A
:1006F800060195F0000F18BF704703F0004652003E
:1007080043EB030313F4801F08BF013DF7D043EA0E
:100718000603704794EA0C0F0CEA135518BF95EAC4
:100728000C0F0CD050EA410618BF52EA4306D1D14B
:1007380081EA030101F000414FF0000070BD50EA6A
:10074800410606BF1046194652EA430619D094EAF4
:100758000C0F02D150EA013613D195EA0C0F05D1DE
:1007680052EA03361CBF104619460AD181EA030132
:1007780001F0004141F0FE4141F470014FF00000EA
:1007880070BD41F0FE4141F4780170BD70B54FF085
:10079800FF0C4CF4E06C1CEA11541DBF1CEA135505
:1007A80094EA0C0F95EA0C0F00F0A7F8A4EB0504E7
:1007B80081EA030E52EA03354FEA013100F08880DE
:1007C8004FEA03334FF0805545EA131343EA1263A7
:1007D8004FEA022245EA111545EA10654FEA00265C
:1007E8000EF000419D4208BF964244F1FD0404F515
:1007F800407402D25B084FEA3202B61A65EB030571
:100808005B084FEA32024FF480104FF4002CB6EB2D
:10081800020E75EB030E22BFB61A754640EA0C00AD
:100828005B084FEA3202B6EB020E75EB030E22BFED
:10083800B61A754640EA5C005B084FEA3202B6EB2E
:10084800020E75EB030E22BFB61A754640EA9C00ED
:100858005B084FEA3202B6EB020E75EB030E22BFBD
:10086800B61A754640EADC0055EA060E18D04FEA7B
:10087800051545EA16754FEA06164FEAC30343EA1B
:1008880052734FEAC2025FEA1C1CC0D111F4801FE8
:100898000BD141EA00014FF000004FF0004CB6E7E1
:1008A80011F4801F04BF01430020B4F1FD0C88BF80
:1008B800BCF5E06F3FF6AFAEB5EB030C04BFB6EB8B
:1008C800020C5FEA500C50F1000041EB045170BD7E
:1008D8000EF0004E4EEA113114EB5C04C2BFD4EBAB
:1008E8000C0541EA045170BD41F480114FF0000E2F
:1008F800013C90E645EA060E8DE60CEA135594EAAB
:100908000C0F08BF95EA0C0F3FF43BAF94EA0C0FAD
:100918000AD150EA01347FF434AF95EA0C0F7FF422
:1009280025AF104619462CE795EA0C0F06D152EA76
:1009380003353FF4FDAE1046194622E750EA41065A
:1009480018BF52EA43067FF4C5AE50EA41047FF46B
:100958000DAF52EA43057FF4EBAE12E74FF0FF3CD0
:1009680006E000BF4FF0010C02E000BF4FF0010CA1
:100978004DF804CD4FEA410C7FEA6C5C4FEA430C1A
:1009880018BF7FEA6C5C1BD001B050EA410C0CBF69
:1009980052EA430C91EA030F02BF90EA020F0020CB
:1009A800704710F1000F91EA030F58BF994208BF32
:1009B80090422CBFD8176FEAE37040F001007047EF
:1009C8004FEA410C7FEA6C5C02D150EA013C07D146
:1009D8004FEA430C7FEA6C5CD6D152EA033CD3D091
:1009E8005DF8040B704700BF8446104662468C468B
:1009F8001946634600E000BF01B5FFF7B7FF0028BE
:100A080048BF10F1000F01BD4DF808EDFFF7F4FFE6
:100A18000CBF012000205DF808FB00BF4DF808ED71
:100A2800FFF7EAFF34BF012000205DF808FB00BF94
:100A38004DF808EDFFF7E0FF94BF012000205DF8B6
:100A480008FB00BF4DF808EDFFF7CEFF94BF01206B
:100A580000205DF808FB00BF4DF808EDFFF7C4FF64
:100A680034BF012000205DF808FB00BF4FEA410CAD
:100A78007FEA6C5C02D150EA013C0AD14FEA430C90
:100A88007FEA6C5C02D152EA033C02D14FF00000CD
:100A980070474FF0010070474FEA410212F500120B
:100AA80015D211D56FF47873B3EB625212D94FEAAD
:100AB800C12343F0004343EA505311F0004F23FA97
:100AC80002F018BF404270474FF00000704750EAEC
:100AD800013005D111F0004008BF6FF000407047A9
:100AE8004FF00000704700BF53B94AB9002908BF4A
:100AF80000281CBF4FF0FF314FF0FF3000F072B9F3
:100B0800ADF1080C6DE904CE00F006F8DDF804E05C
:100B1800DDE9022304B070472DE9F047089E04463A
:100B28008846002B4BD18A42154667D9B2FA82F221
:100B38004AB1C2F1200701FA02F320FA07F79540FB
:100B480047EA030894404FEA154E230CB8FBFEF71A
:100B58001FFA85FC0EFB178843EA084307FB0CF1D4
:100B6800994209D9EB1807F1FF3080F01B819942AF
:100B780040F21881023F2B445B1AA4B2B3FBFEF08B
:100B88000EFB103344EA034400FB0CFCA44509D9CE
:100B98002C1900F1FF3380F00781A44540F204814D
:100BA80002382C4440EA0740A4EB0C0400271EB18D
:100BB800D4400023C6E900433946BDE8F0878B429C
:100BC80009D9002E00F0EB800027C6E9000138465D
:100BD8003946BDE8F087B3FA83F7002F47D18B4237
:100BE80002D3824200F2FA80841A61EB03030120E7
:100BF8009846002EE0D0C6E90048DDE702B9FFDEDE
:100C0800B2FA82F2002A40F08F80491B4FEA154E53
:100C18001FFA85F80127B1FBFEFC230C0EFB1C1103
:100C280043EA014308FB0CF1994207D9EB180CF190
:100C3800FF3002D2994200F2CD808446591AA3B2FD
:100C4800B1FBFEF00EFB101443EA044408FB00F865
:100C5800A04507D92C1900F1FF3302D2A04500F2B4
:100C6800B6801846A4EB080440EA0C409FE7C7F199
:100C7800200CBB4022FA0CFE4EEA030E01FA07F4E0
:100C880020FA0CF521FA0CF34FEA1E482543B3FB72
:100C9800F8F92C0C08FB19331FFA8EFA44EA0343BF
:100CA80009FB0AF49C4202FA07F200FA07F10BD991
:100CB8001EEB030309F1FF3080F087809C4240F26D
:100CC8008480A9F1020973441B1BADB2B3FBF8F091
:100CD80008FB103345EA034400FB0AFAA24508D989
:100CE8001EEB040400F1FF336BD2A24569D9023828
:100CF800744440EA0940A0FB0289A4EB0A044C456D
:100D0800C2464B4654D351D0002E69D0B1EB0A05E8
:100D180064EB030404FA0CFCFD40FC404CEA0505B6
:100D2800C6E90054002747E7C2F1200320FA03F779
:100D3800954001FA02F021FA03F34FEA154E3843C1
:100D4800010CB3FBFEF71FFA85F80EFB173341EAD7
:100D5800034107FB08F38B4204FA02F407D9691828
:100D680007F1FF3C2FD28B422DD9023F2944CB1AE1
:100D780081B2B3FBFEF00EFB103341EA034100FBE6
:100D880008F38B4207D9691800F1FF3C17D28B4250
:100D980015D902382944C91A40EA07473BE73746BC
:100DA800304609E70746E7E61846FBE64145ABD279
:100DB800B8EB020A69EB0E0201381346A4E7604655
:100DC800E9E7184695E76746D1E781467CE70238A8
:100DD8002C4447E7ACF1020C2B442FE7384608E7D0
:100DE8003746E9E6704700BF10B504460E4B187841
:100DF8004FF47A73B3FBF0F30C4A1068B0FBF3F0CE
:100E080000F088F868B90F2C01D901200AE0002207
:100E180021464FF0FF3000F049F8034B5C6000209A
:100E280000E0012010BD00BF0000002008000020E5
:100E380008B50B4B1A6842F400721A601A6842F43B
:100E480080621A601A6842F480721A60032000F007
:100E58001BF80020FFF7C8FF00F022FE002008BDA5
:100E6800003C0240034A1168034B1B780B44136093
:100E7800704700BF9000002000000020014B186858
:100E8800704700BF90000020074AD36823F4E0634E
:100E98001B041B0C000200F4E060184340F0BF6024
:100EA80040F40030D060704700ED00E030B4174BDC
:100EB800DB68C3F30223C3F10704042C28BF04240E
:100EC8001D1D062D18D9033B4FF0FF3505FA04F414
:100ED80021EA0401994005FA03F322EA03031943BE
:100EE80000280BDB0901C9B200F1604000F5614040
:100EF80080F8001330BC70470023E5E700F00F00CE
:100F08000901C9B2024B1954F4E700BF00ED00E033
:100F180014ED00E00138B0F1807F0AD2064B58602A
:100F2800064AF02182F823100020986007221A60F0
:100F380070470120704700BF10E000E000ED00E0BE
:100F4800042805D0054A136823F00403136070478A
:100F5800024A136843F004031360704710E000E08E
:100F6800704708B5FFF7FCFF08BD000000230F2BF2
:100F780000F2D780F0B482B039E0072200E0002206
:100F8800B2403A430234674E46F82420664A146851
:100F9800EA4302EA04064F6817F4803F01D045EAA5
:100FA8000406614C2660646802EA04064F6817F478
:100FB800003F01D045EA04065B4C6660A46802EA7B
:100FC80004064F6817F4801F01D045EA0406564C02
:100FD800A660E46822404E6816F4001F01D045EA76
:100FE8000402514CE26001330F2B00F2978001227A
:100FF8009A400C6804EA0205AA42F4D14C68022C13
:1010080001D0122C10D1DE08083650F826C003F0A3
:101018000704A7000F24BC402CEA040C0C69BC4050
:1010280044EA0C0440F8264004685F000326BE40EA
:10103800F64306EA040C4C6804F00304BC4044EA96
:101048000C0404604C6804F1FF3CBCF1010F03D9A7
:10105800112C01D0122C10D1846806EA040CCC683B
:10106800BC4044EA0C048460446824EA02024C68E8
:10107800C4F300149C4014434460C26816408A6854
:10108800BA403243C2604A6812F0805FABD0002297
:101098000192264A546C44F480445464526C02F41D
:1010A80080420192019A9C08A61C1E4A52F826709A
:1010B80003F0030296000F22B24027EA02071C4AF7
:1010C80090423FF45CAF02F5806290421AD002F57C
:1010D8008062904218D002F58062904216D002F5E4
:1010E8008062904214D002F58062904212D002F5DC
:1010F8008062904210D002F5806290423FF43DAF8A
:1011080008223DE701223BE7022239E7032237E7BD
:10111800042235E7052233E7062231E702B0F0BCA6
:101128007047704700380140003C014000380240D9
:101138000000024012B9090481617047816170475B
:10114800002800F0BB8170B582B00446036813F034
:10115800010F3BD0A74B9B6803F00C03042B2CD04A
:10116800A44B9B6803F00C03082B21D06368B3F5EC
:10117800803F4FD0B3F5A02F52D09E4B1A6822F46F
:1011880080321A601A6822F480221A606368002B81
:1011980050D0FFF773FE0546964B1B6813F4003FCB
:1011A80014D1FFF76BFE401B6428F5D903208AE1B0
:1011B800904B5B6813F4800FD8D08E4B1B6813F4E8
:1011C800003F03D06368002B00F07A81236813F096
:1011D800020F55D0874B9B6813F00C0F3ED0854B00
:1011E8009B6803F00C03082B33D0E368002B68D00E
:1011F800814B01221A60FFF741FE05467D4B1B68B3
:1012080013F0020F54D1FFF739FE401B0228F5D91D
:10121800032058E1774A136843F480331360B5E735
:10122800744B1A6842F480221A601A6842F48032B9
:101238001A60ABE7FFF722FE05466E4B1B6813F4F6
:10124800003FC3D0FFF71AFE401B6428F5D90320DE
:1012580039E1684B5B6813F4800FC6D1654B1B6896
:1012680013F0020F04D0E368012B01D001202AE11A
:10127800604A136823F0F803216943EAC103136045
:10128800236813F0080F40D0636963B35B4B0122F6
:101298001A60FFF7F3FD0546564B5B6F13F0020F1C
:1012A80033D1FFF7EBFD401B0228F5D903200AE1F3
:1012B800504A136823F0F803216943EAC103136015
:1012C800DEE74D4B00221A60FFF7D8FD0546494B73
:1012D8001B6813F0020FD3D0FFF7D0FD401B022884
:1012E800F5D90320EFE0454B00221A60FFF7C6FD51
:1012F8000546404B5B6F13F0020F06D0FFF7BEFDAB
:10130800401B0228F5D90320DDE0236813F0040F01
:1013180079D0384B1B6C13F0805F33D100230193D5
:10132800344B1A6C42F080521A641B6C03F08053E1
:101338000193019B0125324B1B6813F4807F23D056
:10134800A368012B34D0052B38D02A4B1A6F22F012
:1013580001021A671A6F22F004021A67A368002BA9
:1013680036D0FFF78BFD0646224B1B6F13F0020F9A
:1013780048D1FFF783FD801B41F288339842F3D9A7
:101388000320A0E00025D6E71D4A136843F48073C4
:101398001360FFF773FD0646194B1B6813F4807F33
:1013A800CED1FFF76BFD801B0228F5D903208AE018
:1013B800104A136F43F001031367CFE70D4B1A6F01
:1013C80042F004021A671A6F42F001021A67C5E771
:1013D800FFF754FD0646074B1B6F13F0020F11D0A1
:1013E800FFF74CFD801B41F288339842F3D9032064
:1013F80069E000BF0038024000004742800E4742C3
:1014080000700040E5B9A369002B5BD0304A9268B0
:1014180002F00C02082A58D0022B17D02D4B0022BC
:101428001A60FFF72BFD0446294B1B6813F0007F59
:1014380042D0FFF723FD001B0228F5D9032042E024
:10144800234A136C23F080531364DCE7214B0022FA
:101458001A60FFF713FD05461D4B1B6813F0007F4C
:1014680006D0FFF70BFD401B0228F5D903202AE020
:10147800E369226A1343626A43EA8213A26A520842
:10148800013A43EA0243E26A43EA0263104A5360BC
:10149800104B01221A60FFF7F1FC04460C4B1B6845
:1014A80013F0007F06D1FFF7E9FC001B0228F5D9ED
:1014B800032008E0002006E0002004E00120704737
:1014C800012000E0002002B070BD0120FBE700BF52
:1014D8000038024060004742324B9B6803F00C031F
:1014E800042B5CD0082B01D02F4870472DE9F04B16
:1014F8002C4B5A6802F03F025B6813F4800F2BD024
:10150800284B5B68C3F388131E4600275C0100253F
:10151800E41A65EB0705A90141EA9461A001001BE3
:1015280061EB0501CB0043EA5073C400A01943EBFB
:1015380007014B0243EAD0534402204619460023D0
:10154800FFF7D2FA174B5B68C3F3014301335B0023
:10155800B0FBF3F0BDE8F08B124B5B68C3F3881364
:101568001E4600275C010025E41A65EB0705A90162
:1015780041EA9461A001001B61EB0501CB0043EA3D
:101588005073C400A01943EB07018B0243EA905340
:101598008402204619460023FFF7A6FAD2E703483B
:1015A800704700BF003802400024F40000127A009F
:1015B800002800F09D8070B504464F4B1B6803F06F
:1015C8000F038B4209D2CBB24B4A1370136803F056
:1015D8000F038B4201D0012070BD236813F0020F66
:1015E80017D013F0040F04D0444A936843F4E0532F
:1015F8009360236813F0080F04D0404A936843F4BB
:10160800604393603D4A936823F0F003A068034366
:1016180093600D46236813F0010F32D06368012BE5
:1016280021D09A1E012A25D9344A126812F0020FD5
:1016380060D032498A6822F0030213438B60FFF7B7
:101648001DFC06462D4B9B6803F00C036268B3EB48
:10165800820F16D0FFF712FC801B41F288339842A4
:10166800F0D90320B8E7254A126812F4003FE0D108
:101678000120B1E7214A126812F0007FD9D1012078
:10168800AAE71D4B1B6803F00F03AB4209D9EAB266
:10169800194B1A701B6803F00F03AB4201D00120ED
:1016A8009AE7236813F0040F06D0144A936823F4CA
:1016B800E053E1680B439360236813F0080F07D0E9
:1016C8000E4A936823F46043216943EAC103936097
:1016D800FFF702FF094B9B68C3F30313084AD35C67
:1016E800D840084B18600020FFF77EFB002073E706
:1016F8000120704701206FE7003C0240003802409B
:10170800682E000808000020014B1868704700BFC9
:101718000800002030B589B000240194124B1A6BE0
:1017280042F080021A631A6B02F080020192019A59
:1017380002941A6B42F001021A631B6B03F0010357
:101748000293029B094D22461C212846FFF7F2FC12
:101758001C230393012304930594069403A92846A4
:10176800FFF704FC09B030BD003802400000024019
:1017780070B50446002613E00B4D002210212846C0
:10178800FFF7D8FC04F0800204212846FFF7D2FCBA
:101798006400E4B2012210212846FFF7CBFC013691
:1017A800072EE9DD70BD00BF0000024070B5064697
:1017B8000D46002208210D48FFF7BCFC002406E076
:1017C8003046FFF7D5FF2846FFF7D2FF0134032C38
:1017D800F6DD064C002208212046FFF7ABFC01226B
:1017E80008212046FFF7A6FC70BD00BF000002409C
:1017F800F8B582B1012383401B4A505C184350540A
:10180800CE080F4601F00705002208211748FFF708
:1018180091FC00240FE001238340134A505C20EA26
:1018280003005054ECE7681CFFF7A2FF0E4BD85D8D
:10183800FFF79EFF0134032C0ADCC6F10303A34221
:10184800F1D00020FFF794FF0020FFF791FFF1E7A8
:10185800064C002208212046FFF76CFC01220821D3
:101868002046FFF767FCF8BDE400002000000240B6
:101878002DE9F84F06460F46C50800F007098846C7
:10188800002414E04FEAC50B0BF1070A0CE04FEAFD
:10189800D8125FFA8AF14846FFF7AAFF4FEA4808CC
:1018A8005FFA88F80AF1FF3AD345F0DD0134032CDA
:1018B80008DCAC42E6D00020FFF75AFF0020FFF713
:1018C80057FFF3E7014B9F55BDE8F88F94000020C0
:1018D80010B5002404E00021E0B2FFF7C9FF01348D
:1018E8001F2CF8DD002305E000220449CA540449EE
:1018F800CA5401334F2BF7DD10BD00BFE4000020B0
:101908009400002010B5044600210920FFF74EFF7F
:1019180007210B20FFF74AFF01210C20FFF746FFA4
:1019280000210F20FFF742FFFFF7D2FF21460A20D0
:10193800FFF73CFF10BD000010B507281ADC00F1C6
:101948001804012911DD0846FEF78CFD41EC110B46
:101958009FED0F0B00F04CF900220F4B51EC100BD0
:10196800FEF732FCFFF798F80146C9B2E0B2FFF77C
:101978007FFF10BD0F2802DC00F10804E1E71728FB
:1019880002DCA0F10804DCE7A0F11804D9E700BFE5
:1019980000000000000000400000F03FFEE70000EB
:1019A80000B595B0002101912B4B1A6C42F0805282
:1019B8001A641B6C03F080530193019B0291274B1F
:1019C8001A6842F480421A601B6803F48043029349
:1019D800029B012308934FF48033099302220E924D
:1019E8004FF480030F9304231093A82111911292AE
:1019F800139308A8FFF7A4FB20BB0F23039302232C
:101A08000493002305934FF4A05306934FF4805397
:101A18000793052103A8FFF7CBFDC0B9FFF774FEB4
:101A28000F4BA3FB00308009FFF774FA0420FFF77F
:101A380087FA002211464FF0FF30FFF737FA15B04A
:101A48005DF804FB40F21F210648FFF7A7FF40F2AC
:101A58002D210448FFF7A2FF003802400070004023
:101A6800D34D6210802E000808B5FFF7E1F9FFF7A3
:101A780097FFFFF74FFE0220FFF744FF03210520E1
:101A8800FFF75AFF07210E20FFF756FF03210E200C
:101A9800FFF752FF06211520FFF74EFFFEE7000073
:101AA80010B582B000240094214B5A6C42F4804255
:101AB8005A645A6C02F480420092009A01941A6C9B
:101AC80042F080521A641B6C03F080530193019B0F
:101AD8000320FFF7D9F9224621466FF00B00FFF7E4
:101AE800E5F9224621466FF00A00FFF7DFF92246A2
:101AF80021466FF00900FFF7D9F9224621466FF019
:101B08000400FFF7D3F9224621466FF00300FFF7E0
:101B1800CDF9224621466FF00100FFF7C7F92246AA
:101B280021464FF0FF30FFF7C1F902B010BD00BFEA
:101B3800003802407047FEE7FEE7FEE7FEE7704721
:101B48007047704708B5FFF78DF9FFF70AFA08BD27
:101B58000F49D1F8883043F47003C1F888300D4B31
:101B68001A6842F001021A60002098601A6822F090
:101B7800847222F480321A60074A5A601A6822F482
:101B880080221A60D8604FF000638B60704700BFF6
:101B980000ED00E00038024010300024DFF834D0B7
:101BA800002103E00C4B5B58435004310B480C4BAD
:101BB80042189A42F6D30B4A02E0002342F8043B4B
:101BC800094B9A42F9D3FFF7C3FF01F017F9FFF762
:101BD8004BFF704700000220B82E000800000020CC
:101BE800740000207400002034010020FEE700008B
:101BF8002DE9F04F2DED028BDFF824A38BB057ECC5
:101C0800106B55EC114B00F08FF99AF90080B0EE8B
:101C1800408AF0EE608AB8F1FF3F33D022462B4667
:101C280020462946FEF722FF834658BB32463B46EC
:101C380030463946FEF71AFF8146002866D13046FD
:101C4800394600220023FEF7DFFE20B300220023DE
:101C580020462946FEF7D8FE834600287DD09FED12
:101C6800A67B0122AA4BCDF820900092CDE902670D
:101C7800CDE904458DED067B0193B8F1000F5ED0E8
:101C88009FED9F8BB0EE480AF0EE680A0BB0BDECF2
:101C9800028BBDE8F08FB0EE480AF0EE680A00F05B
:101CA80073FF8046002800F082804FF000084FF054
:101CB800000951EC180B42464B46FEF7A5FE0028DA
:101CC800E0D047EC106B00F05FFF0028DAD045EC5D
:101CD800104B00F059FF0028D4D09AF900308C4AF4
:101CE800019204210022022BCDE90267CDE90445C7
:101CF800CDE906890091089203D0684600F04CFFB0
:101D080010BB01F075F8222303601DE000220023B8
:101D180020462946FEF778FE0028B3D09FED788B41
:101D280001227B4BCDF820B0B8F1020F0092CDE92B
:101D38000267CDE904458DED068B0193A2D0684674
:101D480000F02AFF002878D0089B1BB101F050F85A
:101D5800089B03609DED068B94E745EC104B00F063
:101D680013FF00288ED00022002320462946FEF7C4
:101D780055FE002886D0664A9AF90030CDF820B082
:101D88000121CDE90267CDE90445CDE90012002B18
:101D980058D060490020022BCDE9060156D101F048
:101DA80027F821230360089B002BD3D0CEE747EC0C
:101DB800106B00F0E9FE00283FF477AF45EC104BBC
:101DC80000F0E2FE00283FF470AF53EC182B18EE39
:101DD800100A1946FEF74AFE9AF9009000286FD1BA
:101DE8000323DFF82CC108902946204600930022DF
:101DF800494BCDF804C0CDE90445CDE90267FEF7AB
:101E08009BFB04460D46B9F1000F25D1DFF814916C
:101E18004FF060480022002330463946CDE9068954
:101E2800FEF7FCFD38BB684600F0B6FE0028BAD1C4
:101E380000F0DEFF22230360B5E700F0D9FF21237D
:101E4800036081E79FED2C7B8DED067B684600F0F3
:101E5800A3FE0028A7D1A2E79FED2B7B0022002339
:101E6800304639468DED067BFEF7D8FDB0B9B9F19D
:101E7800020FDDD0D7E745EC104B00F099FE224663
:101E88002B4651EC100BFEF7BFFDB0B9234B9AF966
:101E980000904FF06042CDE90623E8E745EC104B8F
:101EA80000F086FE22462B4651EC100BFEF7ACFDE7
:101EB80018B9184B0022CDE906239AF90090D6E705
:101EC8000122134BCDF820800092CDE90267CDE9BD
:101ED80004450193B9F1000FB4D000220023104645
:101EE8001946FEF753FCB9F1020FCDE906013FF49C
:101EF80056AFABE7AFF30080000000000000000021
:101F0800000000000000F03F000000000000F07F2B
:101F1800902E00080000F0FF0000E03FFFFFEFC731
:101F28000C000020FFFFEF472DE9F04F51EC110B9B
:101F380021F0004555EA000393B010D059EC108BFE
:101F48006D4B29F000449C424E4610EE10AA0DDD60
:101F580004F1404404F5801454EA0A0356D1674951
:101F6800002041EC100B13B0BDE8F08F0F4611EEC6
:101F780010CA48D09D42EBDC5F4B9D425FD0002EDB
:101F8800CDE900015FDB4FF0000BBCF1000F0ED173
:101F9800594B9D4243D0594B9D4200F08C80B7F17C
:101FA800804F00F09E80564B9F4200F0B88349EC6A
:101FB800108B00F0DFFD51EC100BBAF1000F06D1C9
:101FC800002C5AD04D4B26F040429A4255D0F60F7D
:101FD80006F1FF3A5BEA0A0373D04A4B9D4240F38D
:101FE800998003F104739D4240F33884464B9C4228
:101FF80072DD002F72DD3EA3D3E900231046194697
:10200800FEF79AFAADE7B8F1000F05D03F4813B0D4
:10201800BDE8F04F00F0C4BDA542F7DCACE704F121
:10202800404303F5801353EA0A0398D0364B9C4289
:1020380040F37F83002F51DBDDE9000191E7BCF11C
:10204800000F9CD084E7324B9D4231DCA3F15473DE
:102058009D4298DD2B15A3F2FF33142B40F3A18387
:10206800C3F134032CFA03F202FA03F363458AD16D
:1020780002F00102C2F1020B87E7002F05DA0246DF
:102088000B4600201D49FEF781FB002EBFF669AF05
:1020980004F1404404F5801454EA0B0300F03A8438
:1020A800BBF1010F7FF45DAF01F10043194658E71A
:1020B8004FF0020B69E7002FC0F2448340464946BF
:1020C8004FE742464B4610461946FEF77DF8024652
:1020D8000B46FEF75BFB44E7002F8CDB002000215A
:1020E8003FE742464B4640464946FEF725FA38E761
:1020F8009C7500883CE4377E0000F07F0000F03FCC
:102108000000E03F0000E041FFFFEF3F942E000891
:10211800FFFF3F43B4F5801F80F260830022D04B5D
:10212800FEF70AFA6FF034060C462315CD4AC4F3BD
:102138001304A3F2FF3344F07F559E1994420D9681
:1021480045F4401540F33D83C74B9C4240F301845E
:102158009FEDAD7B8DED087B8DED107B9FEDAC7B0E
:102168008DED067B01360D96A5F580154FF000081C
:10217800DDE9062329460646FEF726F8DDE90623AB
:10218800CDE90A0130462946FEF720F802460B46FB
:102198000020B649FEF7FAFA03460C46CDE90E349C
:1021A80002460B46DDE90A01FEF7C6F96B1043F05B
:1021B800005303F500230A462F46014603EB0805A2
:1021C8000023CDE902120293DDE902890024CDE95A
:1021D80004122B46224640464946FEF7ADF9024610
:1021E8000B46DDE90A01FDF7EFFFDDE90623CDE93E
:1021F8000A0120462946FDF7E7FF02460B4630460E
:102208003946FDF7E1FF42464B46FEF795F902468F
:102218000B46DDE90A01FDF7D7FFDDE90E23FEF7DE
:102228008BF9DDE90445CDE9060122462B46204617
:102238002946FEF781F978A3D3E9002304460D4621
:10224800FEF77AF976A3D3E90023FDF7BFFF22460C
:102258002B46FEF771F974A3D3E90023FDF7B6FF07
:1022680022462B46FEF768F971A3D3E90023FDF750
:10227800ADFF22462B46FEF75FF96FA3D3E9002393
:10228800FDF7A4FF22462B46FEF756F96CA3D3E9C7
:102298000023FDF79BFF224606460F462B462046A5
:1022A8002946FEF749F902460B4630463946FEF7FD
:1022B80043F9424604460D464B46DDE90401FDF765
:1022C80085FFDDE90623FEF737F922462B46FDF7A1
:1022D8007DFF424606460F464B4640464946FEF7B6
:1022E8002BF90022624BCDE90A01FDF76FFF324658
:1022F8003B46FDF76BFF02980D46044622462B46E7
:1023080040464946FEF718F9002280468946584B50
:1023180020462946FDF758FFDDE90A23FDF754FF5B
:1023280002460B4630463946FDF74EFFDDE90423E9
:10233800FEF702F9224606460F462B46DDE906015E
:10234800FEF7FAF802460B4630463946FDF73EFFDF
:1023580006460F4602460B4640464946FDF736FFFD
:10236800029839A3D3E9002304460D46FEF7E4F8A2
:102378004246CDE904014B4620462946FDF724FF95
:1023880002460B4630463946FDF71EFF30A3D3E917
:102398000023FEF7D1F830A3D3E9002306460F4601
:1023A80020462946FEF7C8F802460B46304639460D
:1023B800FDF70CFFDDE91023FDF708FF06460D9831
:1023C8000F46FEF74FF83246804689463B46DDE920
:1023D8000401FDF7FBFEDDE90823FDF7F7FE4246A1
:1023E8004B46FDF7F3FE029842464B4604460D461F
:1023F800FDF7EAFEDDE90823FDF7E6FEDDE9042343
:1024080038E000BFAFF300800000000000000000CB
:10241800000000000000F03FEF4E454A287ECA3F0A
:1024280065DBC9934A86CD3F01411DA96074D13F40
:102438004D268F515555D53FFFAB6FDBB66DDB3F52
:10244800033333333333E33F000000E009C7EE3F83
:10245800FD033ADC09C7EE3FF5015B14E02F3EBEF1
:10246800000040438E98030079B60B000000F03F4F
:1024780000000840FDF7A8FE0B46024639463046E4
:10248800FDF7A2FE0BF1FF3353EA0A03CDE904017D
:1024980000F05F819FEDD27B8DED027BDDE900AB23
:1024A800002356465F46CDE900670093DDE90067E3
:1024B800504632463B465946FDF786FE22462B4695
:1024C800FEF73AF85246804689465B46DDE9040144
:1024D800FEF732F802460B4640464946FDF776FEBF
:1024E8003246804689463B4620462946CDE904893E
:1024F800FEF722F80B46024606460F464046494676
:10250800FDF764FED04B994204460D468A4640F3D7
:10251800258101F13F4303F5E003034340F0FE81C9
:10252800B1A3D3E90023DDE90401FDF74FFE3246EC
:10253800804689463B4620462946FDF745FE024629
:102548000B4640464946FEF787FA002840F0E681E8
:10255800A8464FEA2853A3F2FE324FF480131341E2
:102568005344C3F30A52B94DA2F2FF321541C3F3E3
:10257800130423EA05010020C2F1140B44F480146B
:10258800BAF1000F02460B4644FA0BFB30463946B7
:10259800B8BFCBF1000BFDF717FE06460F463246D3
:1025A800DDE904013B46FDF711FE4FEA0B5A0D46E3
:1025B80000248FA3D3E9002320462946FDF7BCFF5A
:1025C8003246804689463B4620462946FDF7FCFDB3
:1025D80002460B46DDE90401FDF7F6FD86A3D3E9C3
:1025E8000023FDF7A9FF86A3D3E9002306460F467B
:1025F80020462946FDF7A0FF02460B4630463946DD
:10260800FDF7E4FD06460F4602460B46404649469E
:10261800FDF7DCFD42464B4604460D46FDF7D4FD6A
:1026280002460B4630463946FDF7CEFD2246804627
:1026380089462B4620462946FDF77EFF72A3D3E93B
:10264800002306460F46FDF777FF71A3D3E9002361
:10265800FDF7BAFD32463B46FDF76EFF6EA3D3E9A0
:102668000023FDF7B3FD32463B46FDF765FF6CA33B
:10267800D3E90023FDF7A8FD32463B46FDF75CFF92
:1026880069A3D3E90023FDF7A1FD32463B46FDF7D8
:1026980053FF02460B4620462946FDF795FD0646A0
:1026A8000F4602460B4620462946FDF745FF002205
:1026B800CDE900014FF0804330463946FDF784FDEF
:1026C80002460B46DDE90001FEF760F84246064681
:1026D8000F464B4620462946FDF72EFF42464B46FD
:1026E800FDF774FD02460B4630463946FDF76CFD92
:1026F80022462B46FDF768FD02460B46002054494A
:10270800FDF762FD8A44BAF5801F02460B46C0F207
:1027180030815146DDE90223FDF70EFF21E4002E4A
:10272800FFF645AC49EC108B13B0BDE8F04F00F054
:1027380057B9002FBFF6D2ACDDE90034184604F1D2
:1027480000410EE442464B4600204149FEF71EF880
:1027580007E49FED377B8DED027B9FE63D4B21F033
:102768000048984540F3E8803B4B0B4403430AD1AB
:1027780032463B46FDF728FDDDE90423FEF762F902
:1027880000283FF4E6AEDDE902012BA3D3E90023DC
:10279800FDF7D2FE28A3D3E90023FDF7CDFEFFF70E
:1027A800E0BBBCF1000F40F0D080C3F1140345FA40
:1027B80003F202FA03F3AB4200F0E380E346FFF7CB
:1027C800EABB9FED1F7B8DED087B8DED107B9FEDA8
:1027D800047B4FF000088DED067BC9E40026A4E4D5
:1027E800000000000000F03FFE822B654715973C73
:1027F80000000000432EE63FEF39FAFE422EE63F86
:10280800396CA80C615C20BED0A4BE726937663EE4
:10281800F16BD2C541BDBB3E2CDE25AF6A56113FD8
:1028280093BDBE166CC1663F3E5555555555C53FBF
:10283800000000000000F0BF59F3F8C21F6EA501A8
:102848000000000000000000FFFF8F40FFFF0F00A6
:102858000000F03FFFCB904000346F3F5C4B9C4240
:102868007FF73AAC5B4B9C423FF7C3AB0022594B16
:10287800FDF7AAFC46A3D3E9002304460D46FDF75D
:102888005BFE45A3D3E900238046894620462946B6
:10289800FDF752FE0022CDE902014F4B20462946A2
:1028A800FDF74AFE02460B463DA1D1E90001FDF7BE
:1028B8008BFC22462B46FDF73FFE02460B460020C6
:1028C8004649FDF781FC224606460F462B46204620
:1028D8002946FDF731FE02460B4630463946FDF7DC
:1028E8002BFE31A3D3E90023FDF726FE02460B4653
:1028F800DDE90201FDF768FC02460B4606460F4675
:1029080040464946FDF762FC002004460D46424613
:102918004B46AFE502460B46FFF7D5BBDDE90201A2
:1029280023A3D3E90023FDF707FE21A3D3E900235E
:10293800FDF702FEFFF715BB284B98453FF709AE98
:10294800DDE900239246934632E64FF0000BFFF78D
:102958002EBB9FED197B8DED087B9FED197B8DEDCF
:10296800107B9FED197B4FF480288DED067BFFF7D8
:10297800FFBB584643EC102B00F0A2F951EC100BAA
:10298800C8E602F00102C2F1020BFFF704BB00BF68
:10299800000000604715F73F44DF5DF80BAE543E7A
:1029A800555555555555D53FFE822B654715F73F6B
:1029B8009C7500883CE4377E0000004003B8E23F85
:1029C80006D0CF43EBFD4C3E000000000000F83F6E
:1029D800FEFFEF3F0000F03F0000D03F0000E03F67
:1029E8002DE9F041624A57EC106BBA4300F095802C
:1029F800002F3B4610EE101A344654DD3F1500F008
:102A0800AF80C3F31303A7F2FF3743F48013E20F39
:102A1800F90702EB43034FEA440503D5ED0F05EB35
:102A28004303A50000267F10B44616224FF4001178
:102A38000CEB010098424FEAD5744FEA450503DCD8
:102A48001B1A00EB010C0E44013A04EB43034FEA56
:102A58005101EDD11046964620244FF0004209E07E
:102A680052D05B00013C03EBD5734FEA52024FEAA8
:102A7800450536D0634502EB0E01F1DD002901EB77
:102A8800020E0ADBE046A3EB0C03A94288BF03F160
:102A9800FF336D1A1044C446E3E7BEF1000FF1DBC3
:102AA8000CF10108EFE727F0004232432AD0002F4B
:102AB80049D1CA0A153B4905002AFAD012F48010F8
:102AC80001D050E020465200D50200F10104F9D5AA
:102AD800C4F1200501FA04F4E9401F1A41EA02038F
:102AE8008FE72B4329D144087110F30701F17F5177
:102AF80001F5001148BF44F0004401EB075322469A
:102B080043EC102BBDE8F081A942AAD8002901EBBB
:102B1800020EC2DB98460023BBE710EE102A3B46A4
:102B280010EE100A3946FDF707FD32463B46FDF721
:102B38004DFB41EC100BBDE8F081421C16BF421C56
:102B480001365408D0E710EE102A30463946FDF712
:102B58003BFB02460B46FDF719FE41EC100BD1E793
:102B68001A463B46AAE70C4620254FF0FF30B3E74C
:102B78000000F07F51EC100B10EE102A21F00043FA
:102B880043EC102B704700BF10EE903A43F0004022
:102B980000F58010C00F704700207047000000004B
:102BA8009FED010B704700BF000000000000F87F98
:102BB800F0B551EC100BC1F30A55A5F2FF32132AF8
:102BC80083B00B464FEAD17610EE104A2FDC002A6C
:102BD8004ADB394D154101EA0507074323D06D0843
:102BE80029400C430CD04FF48021132A23EA050511
:102BF80041FA02F343EA05030CBF4FF000440024F6
:102C08002E4A02EBC6062046D6E90045024629466A
:102C18002046FDF7DBFACDE9000122462B46DDE927
:102C28000001FDF7D1FA41EC100B03B0F0BD332AD7
:102C380007DDB2F5806FF6D110EE102AFDF7C6FA5F
:102C4800F1E7A5F213454FF0FF32EA401042EAD00F
:102C580052081042D4D04FF0804124EA020241FACF
:102C680005F542EA0504CBE721F000420243DAD039
:102C7800C1F3130202435442104D1443240B05EBD5
:102C8800C6004F0C04F40021D0E900457F0410EE83
:102C9800102A41EA070320462946FDF797FACDE9AD
:102CA80000012B462246DDE90001FDF78DFA21F0EF
:102CB800004343EAC671B6E7FFFF0F00982E0008ED
:102CC80038B553EC102BC3F30A511C46054629BBF3
:102CD80010EE101A23F0004421431ED0194600229A
:102CE800394B3A4C10EE100AFDF726FCA542024675
:102CF8000B4636DB0C46C1F30A513639294440F2FB
:102D0800FE70814235DC002914DD24F0FF4424F4F0
:102D1800E00444EA015343EC102B38BD40F2FF7045
:102D28008142EBD110EE100A1946FDF74FFA41EC3B
:102D3800100B38BD11F1350F1EDA4CF250318D42AF
:102D480043EC112B28DD9FED1C0B00F043F81AA370
:102D5800D3E9002351EC100BFDF7EEFB41EC100B0F
:102D680038BD17A3D3E90023FDF7E6FB41EC100BB0
:102D780038BD43EC112BE6E724F0FF4424F4E004CB
:102D8800363144EA0153104619460022104BFDF72C
:102D9800D3FB41EC100B38BD9FED090B00F01AF87E
:102DA80007A3D3E9002351EC100BFDF7C5FB41EC59
:102DB800100B38BDAFF300809C7500883CE4377E6B
:102DC80059F3F8C21F6EA50100005043B03CFFFF45
:102DD8000000903C53EC102B11EE900A23F00041B8
:102DE80000F0004041EA000343EC102B704700BF9D
:102DF800014B1868704700BF1000002070B50D4ED9
:102E08000D4CA41BA4100025A54209D10B4E0C4C57
:102E180000F018F8A41BA4100025A54205D170BD28
:102E280056F8253098470135EEE756F8253098478B
:102E38000135F2E7B02E0008B02E0008B02E0008C9
:102E4800B42E0008F8B500BFF8BC08BC9E46704711
:0C2E5800F8B500BFF8BC08BC9E467047EF
:102E68000000000000000000010203040607080932
:102E780000000000010203042E2E2F5372632F6DF1
:102E880061696E2E63000000706F7700000000001B
:102E9800000000000000304300000000000030C3C4
:082EA80078DCFF7F010000004F
:042EB000AD01000868
:042EB4008901000888
:102EB80001000000100000000024F40001000000E0
:102EC80014000020000000000000000000000000C6
:102ED80000000000000000000000000000000000EA
:102EE80000000000000000000000000000000000DA
:102EF80000000000000000000000000000000000CA
:102F080000000000000000000000000000000000B9
:102F180000000000000000000000000000000000A9
:042F280000000000A5
:0400000508001BA52F
:00000001FF
